:020000040800F2
:100000000000022049020008A1420008A5420008A1
:10001000A9420008AD420008B142000800000000FB
:10002000000000000000000000000000B5420008D1
:10003000B942000800000000BD420008C1420008AB
:100040005F0200085F0200085F0200085F0200080C
:100050005F0200085F0200085F0200085F020008FC
:100060005F0200085F0200085F0200085F020008EC
:100070005F0200085F0200085F0200085F020008DC
:100080005F0200085F0200085F0200085F020008CC
:100090005F0200085F0200085F0200085F020008BC
:1000A0005F0200085F0200085F0200085F020008AC
:1000B0005F020008E94200085F0200085F020008D2
:1000C0005F0200085F0200085F0200085F0200088C
:1000D0005F020008DD4200085F0200085F020008BE
:1000E0005F0200085F0200085F0200085F0200086C
:1000F0005F0200085F0200085F0200085F0200085C
:100100005F0200085F0200085F0200085F0200084B
:100110005F0200085F0200085F0200085F0200083B
:100120005F0200085F0200085F0200085F0200082B
:100130005F0200085F0200085F0200085F0200081B
:100140005F0200085F0200085F020008C542000865
:100150005F0200085F020008D14200085F02000849
:100160005F0200085F0200085F0200085F020008EB
:100170005F0200085F0200085F0200080000000044
:100180005F0200085F02000807B5244A244B9A4228
:100190004FF0000302D242F8043BF7E7214A22491C
:1001A0009818884204D22149595899500433F5E7E8
:1001B00002F096FF684601A902F05CFF1C4D1D4B42
:1001C000ED1AAD1000241E46AC4204DA56F8242085
:1001D00090470134F8E7184B184DED1AAD10002484
:1001E0001E46AC4204DA56F8242090470134F8E762
:1001F000134D144C9DE8030003F0B4FF641BA410DE
:10020000064605EB8405002C04DD55F8043D013C51
:100210009847F8E7304602F009FF00BF3C0A00208B
:100220008C220020000000203C0A0020B8EE0008CC
:100230006002000860020008600200086002000816
:100240006002000860020008FFF79EBFFEE7FEE7BD
:10025000FEE7FEE7FEE7FEE7FEE7FEE7FEE7FEE776
:100260007047000008B50E4B1A6842F400721A601D
:100270001A6842F480621A601A6842F480721A6046
:10028000084B18684FF47A73B0FBF3F000F078F87D
:10029000032000F025F8FFF7E3FF002008BD00BFB2
:1002A000003C024018000020024B1A6801321A601C
:1002B000704700BF3C0A0020014B1868704700BF20
:1002C0003C0A002082B0054B01901968019A0A444B
:1002D00019689142FCD302B0704700BF3C0A00206D
:1002E000074AD36823F4E0631B041B0C43F0BF638D
:1002F00043F4003300F0070043EA0023D360704763
:1003000000ED00E0164BDB68C3F3022370B51D1D42
:10031000C3F10704042C28BF0424062D4FF0010567
:100320008CBF033B002305FA04F405FA03F6013CF5
:10033000013E2140324001FA03F3134300284FEA03
:10034000031305DADAB200F00F00064B1A5470BD41
:1003500000F1604000F56140DBB280F8003370BD11
:1003600000ED00E014ED00E04209012300F01F0061
:1003700003FA00F0014B43F82200704700E100E06F
:100380000138B0F1807F0AD2064B074A5860F0214D
:1003900082F823100020072298601A60704701201D
:1003A000704700BF10E000E000ED00E003689549F1
:1003B0008B4270B51A46044610D993485839834287
:1003C000496814D01830834200F03C8418308342CE
:1003D00014BF4FF000704FF4002009E08B498B42AE
:1003E0002BD98B4801F5527183420968EAD1082064
:1003F00008420CBF00210121002951D0196848078B
:100400004ED518687F4920F004008B4218601ED931
:10041000804818318B42C06800F01C8418318B4230
:1004200000F0E4837C4DAB420CBF4FF400254FF04D
:10043000007578492843C86022E078498B4240F231
:1004400077827748583983424968BBD1CFE76F49F3
:100450008B4240F205836F4801F556718B428068EC
:1004600000F0B88318318B4200F068846D4DAB42C8
:100470000CBF4FF400254FF0007566492843886093
:10048000E66CA16C46F0010604200025E66484F8C1
:10049000345084F8350019B12046884723681A463D
:1004A00058498B4210D9584858398342496815D069
:1004B0001830834200F01B831830834214BF4FF47E
:1004C00080004FF480300AE050498B4240F2BE81F8
:1004D0004F4801F5527183420968E9D152480842F8
:1004E0000CBF00210121002947D05969090644D5D4
:1004F0005869444920F080008B42586114D945481E
:1005000018318B42C06800F0A38318318B4200F091
:100510006B83414DAB420CBF4FF480354FF48005E7
:100520003C492843C86018E038498B4240F2628257
:10053000384801F556718B42806800F04D831831C0
:100540008B4200F0FF83374DAB420CBF4FF4803538
:100550004FF480052F4928438860E66CA16C46F073
:10056000020604200025E66484F8345084F835003F
:1005700019B12046884723681A4622498B4210D970
:10058000214858398342496815D01830834200F019
:10059000B6821830834214BF4FF080704FF4802031
:1005A0000AE01A498B4240F25B81194801F5527109
:1005B00083420968E9D11D4808420CBF002101218E
:1005C00000295ED019688E075BD518680D4920F0A8
:1005D00002008B4218602BD90E4818318B42C0683C
:1005E00000F0348318318B4200F003830A4DAB4294
:1005F0000CBF4FF480254FF0807506492843C86032
:100600002FE000BF5864024070640240B8600240AE
:100610001064024000640240A0640240586002403E
:1006200070600240406402400100800004008000CD
:10063000AD498B4240F2A881AC4801F556718B421E
:10064000806800F0CB8218318B4200F07D83A84D8A
:10065000AB420CBF4FF480254FF08075A34928436F
:100660008860E66CA16C46F0040604200025E66470
:1006700084F8345084F8350019B12046884723683F
:100680001A469C498B4210D99B4858398342496885
:1006900015D01830834200F02C821830834214BFEA
:1006A0004FF080604FF480100AE08F498B4240F297
:1006B000E180924801F5527183420968E9D1102026
:1006C00008420CBF00210121002950D019680D07F4
:1006D0004DD51A68500322D41A68D60503D41A6877
:1006E00022F008021A60834A934240F29C817F49BB
:1006F00018329342C96800F075821832934200F0B4
:1007000034837F4883420CBF4FF480104FF08060E9
:10071000764A0143D160312284F8352020E0754AC1
:10072000934240F24A81714918329342C96800F0FD
:1007300057821832934200F01B83714883420CBFEA
:100740004FF480104FF08060684A0143D1601A680E
:100750001103E0D51A68120302D5412284F835202E
:10076000226C002A00F06C82204690472268614B80
:100770009A4210D96049583B8A425B6814D01831BC
:100780008A4200F0B98118318A4214BF4FF00061EB
:100790004FF4001109E0544B9A4275D9574903F5BB
:1007A00052738A421B68EAD1202119420CBF0023F0
:1007B0000123002B49D01368DD0646D51368580382
:1007C0006CD41368DB0503D4136823F010031360A3
:1007D000484B9A4214D9454918339A42C96800F0E7
:1007E0003C8218339A4200F0078218339A4214BFB1
:1007F0004FF000624FF400123C4B0A43DA6018E0FD
:10080000394B9A4240F25A81384903F556739A425D
:10081000896800F0718218339A4200F09B82183385
:100820009A4214BF4FF000624FF400122F4B0A435C
:100830009A60E26CE36BE2641121002284F83510C7
:1008400084F834200BB12046984770BD2D498B4267
:1008500060D92D485839834249687FF429AE3DE676
:1008600028498B4239D928485839834249687FF44E
:100870008CAEA0E623498B4253D923485839834292
:1008800049687FF406AF1AE71E4B9A421ED91E49EB
:10089000583B8A425B687FF472AF85E7154B9A42FA
:1008A0004DD9124918339A42C96800F0D8811833DB
:1008B0009A4200F0B9811248824214BF4FF00060A2
:1008C0004FF40010094B0143D96054E00F49104B1D
:1008D0008A421B687FF453AF66E70C480C49834299
:1008E00009687FF452AE66E6B860024000640240D8
:1008F0004064024058640240706402401064024048
:10090000A0640240586002407060024010600240E3
:1009100000600240BA48BB49834209687FF4C8AD11
:10092000DCE5B748B749834209687FF4B2AEC6E652
:10093000B348B449834209687FF444AD57E5B24BEC
:100940009A4200F2A580B14BAE499A4240F29C8196
:1009500018339A42C96800F0E78118339A4200F0D0
:100960002782AB48824214BF4FF000604FF4001062
:10097000A44B0143D9601368190300F15881636CDB
:10098000002B7FF460AF60E7A0499E488B4240F2A5
:10099000CF8018318B42C06800F0B68118318B428D
:1009A00000F0FD819A4DAB420CBF4FF480254FF013
:1009B000807594492843C86053E6934A934200F2F5
:1009C000A180924A8F49934240F282811832934229
:1009D000C96800F0AD811832934200F0EC818C4878
:1009E00083420CBF4FF480104FF08060854A014372
:1009F000D160ACE6854983488B4240F2D7801831FC
:100A00008B42C06800F07A8118318B4200F0C581BA
:100A10007F4DAB420CBF4FF480354FF480057949D0
:100A20002843C86099E5784A934200F2A980774A42
:100A30007449934240F23A8118329342C96800F0F7
:100A400075811832934200F0B981714883420CBF1E
:100A50004FF480104FF080606A4A0143D1605AE63B
:100A60006A4968488B4277D918318B42C06800F0D8
:100A70004D8118318B4200F09581654DAB420CBF22
:100A80004FF400254FF000755E492843C860F7E435
:100A9000604903F556739A42896800F02B81183338
:100AA0009A4200F054815C48824214BF4FF00060CB
:100AB0004FF40010574B014399605CE7534B514989
:100AC0009A4240F2CE8018339A42C96800F02881D9
:100AD00018339A4200F0698118339A4214BF4FF0DC
:100AE00000624FF40012474B0A43DA60A1E640204F
:100AF000F5E44FF48060E3E54FF4006155E64FF410
:100B0000807059E5434902F556729342896800F0B6
:100B1000F9801832934200F02E813F4883420CBF87
:100B20004FF480104FF080603A4A014391600EE626
:100B3000334980688B4200F0ED8018318B4200F021
:100B40001181364DAB420CBF4FF480254FF08075BC
:100B50002C492843886084E5294980688B4200F04D
:100B6000D78018318B4200F0FA802C4DAB420CBF7D
:100B70004FF400254FF000752249284388607FE438
:100B8000244902F556729342896800F0C5801832F4
:100B9000934200F0F680204883420CBF4FF480104F
:100BA0004FF080601B4A01439160B4E514498068AE
:100BB0008B4200F0A58018318B4200F0CE80174D9B
:100BC000AB420CBF4FF480354FF480050D492843EC
:100BD0008860C2E4082550E4114DBBE4114D3DE5A9
:100BE0001020B1E5102093E5402599E44FF40075FD
:100BF0001FE44FF4807500E54FF40062FCE500BF90
:100C00001060024000600240B8600240586002403C
:100C1000A060024000640240406402404060024024
:100C200001008000040080004FF400604AE6136871
:100C30001A037FF50AAEE36B002B7FF404AE04E6E3
:100C40001A4694E54FF40070FFF7D2BB5D4DD4E433
:100C50005D4D65E40825FFF7ECBB2022CCE52020A4
:100C600030E65A4B89689A425CD018339A4200F0B9
:100C7000858018339A4214BF4FF000624FF400127F
:100C8000534B0A439A60D4E5504B89689A4245D049
:100C900018339A4278D04F48824214BF4FF0006018
:100CA0004FF400104A4B0143996064E6474A896853
:100CB000934241D01832934269D0464883420CBFD8
:100CC0004FF480104FF08060414A0143916022E56B
:100CD0003E4A896893422DD0183293425AD03D48FB
:100CE00083420CBF4FF480104FF08060384A0143BC
:100CF00091602CE52020DDE6202297E5324D8EE63E
:100D0000314D63E710200FE72E4D52E60825BBE674
:100D1000082531E72B4D1BE7102043E72020C1E7D2
:100D20002022E0E62022ABE7202021E6102093E6F7
:100D300010205BE61020D9E71020C5E74FF40075BE
:100D4000FFF79BBB402505E44FF4807586E44FF424
:100D50000060AFE64FF4006268E5402536E74FF4E7
:100D6000007509E74FF48075F2E64FF48060CFE438
:100D70004FF48060E8E44FF48060D5E64FF4006201
:100D80007EE74FF480600DE74FF400608AE74FF490
:100D9000806099E74FF48060A8E740253FE64FF474
:100DA000807506E64FF400756EE64FF400629AE631
:100DB0004FF40060DCE54FF4806017E64FF480608C
:100DC0004AE600BF0400800001008000106002407D
:100DD00000600240406002402DE9F0470F680022A9
:100DE0000123934003EA07059D4240F0F2804C68DE
:100DF00024F01006022E19D10B6902F0070C4FEAFD
:100E00008C0C03FA0CF8D30800EB83034FF00F0AA5
:100E1000D3F820900AFA0CFC29EA0C0CC3F820C085
:100E2000D3F820C048EA0C0CC3F820C053004FF0A0
:100E3000030CD0F800800CFA03FC6FEA0C0C0CEAEF
:100E40000808C0F80080D0F8009004F0030808FA01
:100E500003F8013E48EA0908012EC0F8008016D8C0
:100E600086680CEA06068660CE68D0F808809E4048
:100E700046EA08068660466826EA05064660466831
:100E8000C4F3001808FA02F848EA06064660C66885
:100E90000CEA0606C6608E68D0F80CC006FA03F3AA
:100EA00043EA0C03C360E30040F193804C4B5E6C5B
:100EB00046F480465E6422F0030606F1804606F59D
:100EC0009C3602F0030CB3684FEA8C0C4FF00F080D
:100ED00008FA0CF823EA0803B360424BD6F80880FE
:100EE000984226D003F58063984224D003F58063AE
:100EF000984222D003F58063984220D003F58063A6
:100F000098421ED003F5806398421CD003F580639D
:100F100098421AD003F58063984218D003F5806395
:100F2000984216D003F58063984214BF0A23092320
:100F300010E000230EE001230CE002230AE003236B
:100F400008E0042306E0052304E0062302E007236B
:100F500000E0082303FA0CF343EA0803B360224BD2
:100F6000D3F800C0EE4306EA0C0CC3F800C0D3F877
:100F700004C014F4803F06EA0C0CC3F804C005D08A
:100F8000D3F800C045EA0C0CC3F800C014F4003FCD
:100F900005D0D3F804C045EA0C0CC3F804C0D3F85C
:100FA0000880DFF844C006EA0808C3F80880D3F8D0
:100FB0000C8006EA0806DE60E60204D5DCF808309C
:100FC0002B43CCF80830A30203D5074BDC6825433C
:100FD000DD600132102A7FF403AFBDE8F08700BF67
:100FE0000038024000000240003C01400AB1018389
:100FF0007047418370474369594041617047000021
:101000002DE9F041044688B0002862D0022380F820
:101010007933064603F036FA206801F06FFB56F884
:1010200010EB37460FCF6D460FC597E80F0085E8E8
:101030000F00251D95E80E00704601F01BFB0021F6
:10104000206801F063FB002211462346012083F84B
:101050003020DA8601320F2A83F8310083F833100A
:101060009963D963596403F11C03F0D10022D4F8C9
:1010700000E01146234602F1400783F8D421DA86C6
:101080000EEB870701320F2A83F8D51183F8D711A9
:10109000C3F8DC11C3F8E011C3F8E8114FF0000801
:1010A00003F11C037960E6D10FCE6F460FC796E8B7
:1010B0000F0087E80F00704695E80E0001F040FB36
:1010C00084F87983206801F031FF404608B0BDE81C
:1010D000F081012008B0BDE8F08100BF90F87833BE
:1010E000012B10B5044601D1022010BD012380F868
:1010F0007833006801F00EFF206801F0F7FA002055
:1011000084F8780310BD00BF2DE9F04F076887B061
:101110000446384601F048FF10B107B0BDE8F08F33
:10112000206801F00FFF0028F7D0206801F00AFFC7
:1011300010F0020F20681EBF436943F002034361B1
:1011400001F000FF010300F134814FF00008206836
:1011500001F0F8FE10F4802F206840F0CE8001F0FE
:10116000F1FE0028C0F21782206801F0EBFE0105B5
:101170004ED4206801F0E6FEC3047FD4206801F05D
:10118000E1FE10F4005F20685AD101F0DBFE10F0A0
:10119000100F206817D0836923F0100383613D6A24
:1011A00005F00F03C3EBC303C5F3434204EB830312
:1011B000022A03F5EA7600F0DA81062A33D0836941
:1011C00043F01003836101F0BDFE070700F1418188
:1011D000206801F0B7FEC60200F12581206801F009
:1011E000B1FE850200F12A81206801F0ABFE4000CB
:1011F00000F1D680206801F0A5FE41078DD5236857
:101200005D686A0700F198815A6815435D6084E75C
:10121000D7F80838DA0700F194812068436943F46D
:1012200000634361A6E7384604F55F71082201F0C8
:101230000FFEB3692068C5F30A152B44B361BEE7FE
:1012400001F0B6FE2068C36823F47053C36001F058
:1012500043FB2368002840F08181DA68E0604FF4A6
:10126000007142F410526161DA60204603F0E4F943
:101270002068436943F40053436186E707F500663D
:101280007368206823F001037360002101F012FBF2
:1012900065685DB107F510630022FF210132AA42A3
:1012A0009960C3F8081203F12003F7D14FF0FF3320
:1012B000B361F269A36A42F00112F261002B00F0FF
:1012C0004481D6F8843043F00B03C6F88430736C45
:1012D00043F00B037364D7F800382068217C23F4B3
:1012E000FE63C7F8003804F55F7201F07DFE2068E8
:1012F000436943F48053436141E701F02FFE834685
:10130000002800F087814FF00008206803972546E9
:1013100007F5106AC14609E05FEA5B0B09F10109B4
:1013200005F11C050AF1200A00F09C801BF0010F5A
:10133000F2D05FFA89F7394601F022FEC30706466C
:1013400016D5012303FA09F1039B03F50062C94393
:101350002369516301229342CAF8082000F03881C2
:101360003946204603F05AF92169012900F022810B
:10137000300744BF0823CAF80830F10644BF1023E1
:10138000CAF80830720644BF4023CAF80830B307D1
:1013900044BF0222CAF80820300666D42068BBE7A2
:1013A000204603F069F92068436943F080434361B4
:1013B00021E7206801F0CAFD054600283FF4C5AECC
:1013C00007F53066A3464FF0000808E06D0808F105
:1013D000010806F120060BF11C0B3FF4B8AEEA073A
:1013E000F4D55FFA88FA5146206801F0BFFD10F08D
:1013F000010F81460DD0236901229342B26000F0B3
:10140000FB805146204603F0FFF82169012900F0D6
:10141000E48019F0080F40F0898019F0100F1CBF0C
:101420001022B260D2E720465FFA88F103F020F97B
:101430002068436943F480134361D0E620465FFA95
:1014400088F103F011F92068436943F40013436104
:10145000CBE6204603F0ECF82068436943F008032C
:101460004361B6E6C846039F79E62368696CD5F800
:1014700048C0AA6B049303F5106808EB4918CCEB3D
:101480000103934234BF1E461646D8F818E0F01CFC
:1014900048BFB01D1FFA8EFEBEEBA00F40F2BD800C
:1014A000614540F2BA80002900F0B780E96BCDF8C1
:1014B00014901646A94625464446DDF8108006E0FD
:1014C000D9F844209A421ED9D9F83860D31AB342C9
:1014D00038BF1E462B7C00933A46B3B2404601F01B
:1014E000A3FCD9F83C10D9F8483031443344C9F84A
:1014F0003C10C9F84830A069F21C80B248BFB21D48
:10150000B0EBA20FDCD82C464D462068DDF81490D5
:10151000002E3FF701AF049A02F50061012202FAA2
:1015200009F34A6B22EA03034B63F5E6204603F016
:1015300065F80823B36070E7204603F0A1F823683C
:1015400062E6204603F088F867E6736943F00B0310
:101550007361336943F00B033361BCE6DA6803203F
:1015600042F4A0524021E0606161DA607DE647F616
:10157000F0732B40002B3FF422AE1D092A4638465B
:10158000F16801F065FCF268B36920682A442B44D5
:10159000F260B36113E6D7F8042822F00102204676
:1015A000C7F8042803F05CF82068436943F000435F
:1015B0004361DAE5B9F1000F7FF4DAAE636C002B1A
:1015C0007FF4D6AE206804F55F7201F00DFDCFE622
:1015D000EA6BAB6B1344EB63C2E6B8F1000F7FF428
:1015E00018AFD4F8E831002B7FF413AF206804F56E
:1015F0005F7201F0F9FC0CE73169DBF8DC31DBF8F4
:10160000E021C1F31201591A1344CBF8EC11CBF8C5
:10161000E031F6E680462068A1E5049878E700BF4F
:1016200090F87833012B10B5044601D1022010BD8B
:10163000012380F87833006801F05CFC002084F816
:10164000780310BD70B50546080620D4C1EBC10073
:1016500005EB800000F5EA74002680F8D411A26042
:10166000E3706670022B04BF0023237195F8783372
:10167000012B01D1022070BD0123214685F878336A
:10168000286801F047F9002085F8780370BD01F063
:101690007F01C1EBC100800030302C180126295495
:1016A000A260E370E1806670DCE700BFCAB2130697
:1016B00010B5044619D4C1EBC10300EB830303F555
:1016C000EA73D2095A70197094F87823012A01D16B
:1016D000022010BD0122194684F87823206801F009
:1016E00061F9002084F8780310BD01F07F01C1EB9F
:1016F000C10300EB83033033E3E700BF70B501F0B3
:101700007F050446C5EBC50004EB800000F5EA71D7
:1017100000264E70CA604B618E6180F8D4512369F7
:10172000012B08BF0A6194F87823012A11D0012205
:1017300084F878232068DAB22DB101F075F9002021
:1017400084F8780370BD01F0B1FA002084F87803C2
:1017500070BD022070BD00BF01F07F01C1EBC1016F
:1017600000EB8100B0F8EC01704700BFF8B501F064
:101770007F05C5EBC5018900044601F13000211841
:10178000012600274E70CA604B618F612554236982
:10179000B34208BF0A6194F87823012A11D00122CC
:1017A00084F878232068DAB22DB101F03DF90020E9
:1017B00084F87803F8BD01F079FA002084F8780302
:1017C000F8BD0220F8BD00BFCAB238B51306044602
:1017D0001CD4C1EBC10300EB830303F5EA730D4690
:1017E000D20901215A701D70997094F878238A42A9
:1017F00001D1022038BD84F878132068194601F021
:101800003BFB5DB1002084F8780338BD01F07F0513
:10181000C5EBC50300EB83033033E1E72068217C8F
:1018200004F55F7201F0E0FBECE700BFCAB238B527
:10183000130604461BD4C1EBC10300EB830303F57D
:10184000EA73D20900255A7019709D7094F87823B4
:10185000012A01D1022038BD0122194684F87823DB
:10186000206801F029FB84F87853284638BD01F040
:101870007F01C1EBC10300EB83033033E1E700BF1D
:1018800030B405686B6AD1B1A86A013903EB104026
:101890000CD000242346403405EB840401336468F3
:1018A000DBB28B4200EB14401C46F4DB403105EB0D
:1018B000810540EA02406860002030BC704743EA7E
:1018C0000243AB62002030BC704700BF03680020B9
:1018D00059627047F8B503680446D80703D42368F3
:1018E00099074AD48CE0AA4B9A6802F00C02042AA9
:1018F00007D09A6802F00C02082A0BD15B685A02E2
:1019000008D5A34B1B689B03E9D56368012BE6D080
:101910000120F8BD9F4E00233370FEF7CDFC00F58B
:101920009C5508359A4B1B689F0305D5FEF7C4FCF0
:10193000A842F7D30320F8BD237933706368012BE5
:101940000DD1FEF7B9FC00F59C550835904B1B688E
:101950009803C4D4FEF7B0FCA842F7D3EAE7FEF739
:10196000ABFC00F59C550835894B1B689903B6D52F
:10197000FEF7A2FCA842F7D3DCE7854B9A6812F089
:101980000C0F07D09A6802F00C02082A0AD15B6893
:101990005A0207D47E4B1B689B0731D5E368012BA5
:1019A000B6D12DE0E2687C4BE2B101221A60FEF76D
:1019B00083FC00F16405764B1A68970704D4FEF7A0
:1019C0007BFCA842F7D3B5E71968F82090FAA0F09D
:1019D000B0FA80F02269C0B2824021F0F8010A43D7
:1019E0001A600DE01A60FEF767FC00F16405684BB1
:1019F0001B689E0704D5FEF75FFCA842F7D399E762
:101A000023681D0703D4236858074DD51FE062697A
:101A1000624B72B101221A60FEF74EFC00F16405C0
:101A20005B4B5B6F9907EED4FEF746FCA842F7D3F9
:101A300080E71A60FEF740FC00F16405544B5B6FD1
:101A40009A07E0D5FEF738FCA842F7D372E7504B6F
:101A50001A6C42F080521A64A3F5E4331A6842F417
:101A600080721A60FEF728FC00F164054C4B1B687D
:101A7000DB051CD54B4E00233370FEF71DFC00F533
:101A80009C550835424B1B6F9F0715D4237A337042
:101A9000A368012B1AD1FEF70FFC00F59C55083501
:101AA0003B4B1B6F9E070CD5A369EBB963E0FEF7B8
:101AB00003FCA842DAD33DE7FEF7FEFBA842E1D3E0
:101AC00038E7FEF7F9FBA842EAD333E7FEF7F4FB69
:101AD00000F59C5508352E4B1B6F9807E4D5FEF793
:101AE000EBFBA842F7D325E7294A926802F00C02E3
:101AF000082A3FF40DAF2C4D022B4FF000032B6052
:101B000054D1FEF7D9FB00F16406214B1A6891010C
:101B100033D447F6C07292FAA2F2B2FA82F24FF4CC
:101B2000403797FAA7F7B7FA87F74FF0706696FA3B
:101B3000A6F6B6FA86F6206AE1690143D0B2626A77
:101B400041F0005182401143A26AE46A5208013A0E
:101B5000FFB202FA07F741EA0702F1B28C402243D2
:101B60005A6001232B60FEF7A7FB00F16404084BC9
:101B70001B689A0106D50020F8BDFEF79DFBB04218
:101B8000C3D3D7E6FEF798FBA042F0D3D2E600BF5E
:101B9000003802400238024000004742800E4742AF
:101BA000007000407038024060004742FEF784FB3E
:101BB00000F16404044B1B689B01DCD5FEF77CFB41
:101BC000A042F7D3B6E600BF00380240244B9A6823
:101BD00002F00C02042A40D0082A01D021487047A4
:101BE0005968586801F03F014FF4800292FAA2F25E
:101BF000B2FA82F200F48000D2B230FA02F247F672
:101C0000C07258680BD092FAA2F3B3FA83F3DBB236
:101C10000240DA40144BB3FBF1F353430CE092FA69
:101C2000A2F2B2FA82F247F6C07303400D48D2B274
:101C3000D340B0FBF1F14B43094A50684FF44032B6
:101C400092FAA2F2B2FA82F2D2B200F44030D0405C
:101C500001304000B3FBF0F070470348704700BF0D
:101C6000003802400024F400007A030A08B5FFF7A8
:101C7000ADFF094B9A68F02393FAA3F3B3FA83F309
:101C800002F0F002DBB222FA03F3044AD35CD8403C
:101C9000034B186008BD00BF0038024030E900085F
:101CA000180000206C4B1A6802F00F02914270B5C8
:101CB00004460D4659D9CAB21A701B6803F00F03C7
:101CC0008B4201D0012070BD0368DD070BD423686F
:101CD000980740F19780614AA168906820F0F00071
:101CE000014391608EE042685C4B012A196802D181
:101CF00011F4003F06E0022A02D111F0007F01E05A
:101D000011F0020FDED0996821F003010A439A60B6
:101D1000FEF7D2FA636800F59C55012B05F1080522
:101D20000BD14E4B9B6803F00C03042BCFD0FEF776
:101D3000C3FAA842F5D3032070BD022B09D0474B4C
:101D40009B6813F00C0F0BD1C1E7FEF7B5FAA84260
:101D5000F1D2424B9B6803F00C03082BF5D1B6E798
:101D6000FEF7AAFAA842EAD3E5E70368D90708D440
:101D7000394BEAB21A701B6803F00F03AB42A1D1D2
:101D8000A5E74268354B012A196802D111F4003FDA
:101D900006E0022A02D111F0007F01E011F0020FEB
:101DA00090D0996821F003010A439A60FEF784FA03
:101DB000636800F59C56012B06F108060AD1274BF3
:101DC0009B6803F00C03042BD2D0FEF775FAB042E7
:101DD000F5D3B0E7022B09D0204B9B6813F00C0F12
:101DE0000BD1C5E7FEF768FAB042A4D21B4B9B6843
:101DF00003F00C03082BF5D1BAE7FEF75DFAB04209
:101E0000EAD398E75A0706D5144AE168906820F4A7
:101E1000E050014391601B0707D5104B21699A6878
:101E200022F4604242EAC1029A60FFF71FFF4FF4BA
:101E30007A73B0FBF3F00138B0F1807F0AD2084B1F
:101E4000084A5860F02182F8231000200722986089
:101E50001A6070BD002070BD003C02400038024096
:101E600010E000E000ED00E02DE9F0411D460646DF
:101E70000C461746FEF720FA00EB050877B93268E2
:101E800001E0691C15D193682340A342F9D10020D9
:101E9000BDE8F081FEF710FA80450ED9326801E006
:101EA0006B1CF7D193682340A342F9D00020BDE812
:101EB000F081FEF701FA8045E1D83368B26A5968CB
:101EC00021F0E00159601968B2F5005F21F040018E
:101ED000196007D11A6822F400521A601A6842F495
:101EE00000521A600122002386F8512086F85030F3
:101EF0000320BDE8F08100BF704700BF2DE9F04727
:101F00008046002848D090F85130002B41D0D8F8B6
:101F10000830D8F80470D8F80C60D8F81050D8F809
:101F20001440D8F81C10D8F82020D8F80000D8F8B1
:101F300018C0D8F82C901F433E4335432C4321430F
:101F40000A434FF0020AD8F8281088F851A0066812
:101F500042EA01034FEA1C44D8F824100CF4007C38
:101F600004F0040443EA0C0326F040020C43026030
:101F700003604460C0F81090C169002321F400613F
:101F80000122C16188F85230184688F85120BDE816
:101F9000F087FFF7B1FFBAE70120BDE8F08700BF87
:101FA000704700BF10B5044670B103681A6822F08C
:101FB00040021A60FFF7F4FF002084F8520084F812
:101FC000500084F8510010BD012010BDF0B504464A
:101FD00090F8510083B0C0B20128089D04D0222897
:101FE00002D0022003B0F0BD00295ED0002A5CD0F0
:101FF000002B5AD094F850000128F2D094F85100E8
:10200000A2630126B04204BF322084F85100A06AC6
:1020100084F850600022B0F5005F84F85220A2647A
:10202000E264A387E3872163A386E386226800F046
:10203000CA801668760603D4166846F04006166015
:10204000E668B6F5006F6AD04E1C2663013B09783E
:10205000D1609BB2E386002B40D1B0F5005F00F069
:10206000CD802046012100222B46FFF7FDFED0B98E
:102070002268A36BD2681A70E38F013BE387A36ADF
:10208000B3F5005F00F0BF802B462046802101227F
:10209000FFF7EAFE002800F0C58094F8523043F0C4
:1020A000200384F8523003209CE7012003B0F0BDE8
:1020B000DEF8006046F48056CEF80060FFF7D4FEEC
:1020C0000028F0D1A36B2268591CD268A1631A7052
:1020D000E38FE28E013BE387002A7DD002210022BC
:1020E0002B462046FFF7C0FE012100222B46002888
:1020F000D9D1276BE68ED4F800E007EB010CC4F8C9
:1021000030C0013E3F78CEF80C70B6B22046E6866D
:10211000002ED3D1A66AB6F5005FCFD1C8E7013B48
:1021200031F8026BD6609BB22163E386002B2BD182
:10213000B0F5005F00F08C802046012100222B4684
:10214000FFF792FE0028AED12268A36BD26823F875
:10215000022BE28FA363531EE38790E7DEF8006053
:1021600046F48056CEF80060FFF77EFE00289AD134
:102170002268A36BD26823F8022BE18FE28EA3635F
:102180004B1EE387002A5AD0022100222B4620460C
:10219000FFF76AFE012100222B46002883D1E78E3B
:1021A000266BD4F800E036F8020BCEF80C00013FA5
:1021B000BFB22046E7862663002FD5D1A66AB6F5C2
:1021C000005FD1D1CAE7166826F40056166016687B
:1021D00046F4005616602CE7204601212B46FFF7F7
:1021E00043FE00287FF45FAFA36B2268591CD268BE
:1021F000A1631A70E38F013BE38740E7136843F460
:10220000805313602DE72046012100222B46FFF763
:102210002BFE10B394F8523043F0020384F852308E
:102220000320DFE6A16A2368012284F85120B1F57A
:10223000005F9D6817D0002384F85030D2E6204616
:1022400001212B46FFF710FE00287FF42CAF7BE71F
:10225000136843F4805313606EE72368DB689BB216
:10226000ADF8063010E7E906E5D594F8521041F0D4
:10227000020184F85210196821F40051196019689C
:1022800041F40051196084F850001046AAE600BFDE
:1022900090F85100704700BF704700BF704700BF03
:1022A000704700BF704700BF704700BF03681A69DE
:1022B000910710B5044602D5DA68920765D41A6909
:1022C000500702D5DA6851074BD41A69120702D5B4
:1022D000DA68100732D41A69D20602D5DA68D00655
:1022E00018D41A69D10702D5DA68D20771D41A69ED
:1022F000100602D5DA68110674D41A69520602D59E
:10230000DA6850065CD41A69910602D5DA6892063A
:102310004DD410BD1A6922F010021A619B6908227F
:1023200013F4407F2276204668D1FFF7B7FF20469E
:10233000FFF7B8FF002223682276D2E71A6922F05D
:1023400008021A619B6904229907227620465BD114
:10235000FFF7A4FF2046FFF7A5FF0022236822769F
:10236000B9E71A6922F004021A619B69022213F488
:10237000407F2276204644D1FFF790FF2046FFF7AA
:1023800091FF0022236822769FE71A6922F0020259
:102390001A619B6901229B0702762CD1FFF77EFF11
:1023A0002046FFF77FFF00222368227687E71A691D
:1023B00022F0200220461A61BDE8104000F028B843
:1023C0001A6922F040021A612046FFF76DFF236868
:1023D00099E71A6922F001021A612046FFF75CFFB3
:1023E000236884E71A6922F080021A61204600F00F
:1023F00011F8236881E7FFF753FFD4E7FFF750FF99
:1024000098E7FFF74DFFBCE7FFF74AFFA5E700BFDE
:10241000704700BF704700BF704700BF704700BFE4
:1024200003681A68D96810B50446D00701D5CA05F3
:1024300048D41A685969900701D5CA0737D41A6871
:102440005969500701D5CA0726D41A685969100777
:1024500001D5CA0715D41A68D968900601D589062E
:1024600046D41A68D968500601D54A0635D494F87E
:102470003A302BB1012384F839302046FFF7CEFFE4
:1024800010BD1A6822F008021A6094F83A2042F04F
:10249000080284F83A20DEE71A6822F004021A6083
:1024A00094F83A2042F0020284F83A20CDE71A6804
:1024B00022F002021A6094F83A2042F0040284F8F2
:1024C0003A20BCE71A6822F001021A6094F83A2018
:1024D00042F0010284F83A20ABE794F8392002F088
:1024E000DF02122A0FD01A6822F040021A60BEE7FB
:1024F00094F8392002F0EF02222A35D01A6822F02F
:1025000020021A60ADE794F83820012AEBD0A268C7
:102510000121B2F5805F84F83810226A75D0511C11
:10252000216212785A60E28C013A92B2E284002A67
:1025300055D1DA6822F04002DA6094F83920322A64
:102540006CD0DA6822F48072DA605969012221F0D5
:102550000101596184F83920002384F8383020467D
:1025600001F08AFF2368BEE794F83820012AC5D01D
:10257000A2680121B2F5805F84F8381022693BD04F
:10258000002A30D1A26A5B68511CA16213702368D3
:10259000E28D013A92B2E2851AB1002284F8382025
:1025A000ACE71A689206FCD4DA6822F02002DA60FE
:1025B00094F83920322A38D0DA6822F48072DA604E
:1025C0005969012221F00101596184F83920002361
:1025D00084F838302046FFF71FFF23688EE700227B
:1025E00084F838207FE75A68A36A02F07F02591CFA
:1025F000A1621A702368CBE7A16AD2B95A68C2F304
:10260000080221F8022BA162C2E710882169C0F3F9
:102610000800586031B90232226284E7222384F82C
:10262000393099E7013222627DE7122384F839308C
:10263000CDE75A68D2B221F8012BA162A8E700BF0A
:102640000B4B01E0013B10D00269002AFADA036962
:10265000074A43F00103036101E0013A05D0036931
:1026600013F00103F9D1184670470320704700BFEB
:10267000400D030084B038B50A9D05AC012D84E8F7
:102680000E00044618D0C36843F04003C360FFF750
:10269000D7FF4FF48033A363089B012B07D1A368B6
:1026A00043F00C03A360A36843F02003A360BDE8DC
:1026B0003840002004B07047836B0F9A23F48033B6
:1026C0008363C36823F4840323F04003C360C368B7
:1026D000012A23F44013C36003D02046FFF7B0FF64
:1026E000DAE7C36843F48013C360F6E703460020CB
:1026F0009A6842F001029A60704700BF03460020CA
:102700009A6822F001029A60704700BF08B5C3685A
:10271000012923F0C043C36009D019B9C36843F04D
:102720008043C3603220FDF7CDFD002008BDC368A3
:1027300043F00053C3603220FDF7C4FD002008BD04
:1027400084B02DE9F00708AC84E80E00836BDDF857
:1027500040A0DDF82CC043F400238363BAF1000FDE
:1027600003D1836B43F4001383630023C0F8003E5E
:102770000D9BD0F80028C0F80028012B00F500645C
:1027800000F08480D0F8003843F00303C0F800382C
:102790004FF408730361444B01E0013B02D002692E
:1027A0009506FAD4102303613F4B01E0013B02D0B0
:1027B0000269D206FAD400224FF0FF33226162612F
:1027C000A361E26141B3154600F510634FF09049F3
:1027D000FF261F680132002FB4BFC3F800901D60B0
:1027E0008A421D619E6003F12003F2D10022164649
:1027F00000F530634FF090494FF0FF081F68013239
:10280000002FB4BFC3F800901E608A421E61C3F857
:10281000088003F12003F1D12369BCF1010F23F4F7
:102820008073236123D000226FF080438261436173
:10283000BCF1000F03D1836943F010038361816908
:102840001A4B0E9A0B4383611AB1836943F0080354
:102850008361BAF1010F05D1836943F0804343F0EE
:1028600004038361BDE8F007002004B07047104BFB
:102870002363236B43F4803343F003032363002279
:102880006FF08043216B82614361D8E70A9B23B9D3
:10289000D0F80038C0F800387AE7D0F8003843F0B4
:1028A0000103C0F8003873E7400D030000383C8096
:1028B00000018000490141F020010161054A01E069
:1028C000013A05D0036913F02003F9D11846704787
:1028D00003207047400D0300D0F8083813F00603BA
:1028E00000F5006013D0836803F00603022B0CD0C0
:1028F000836803F00603062B07D0836803F0060302
:10290000042B0CBF0220002070470320704718469C
:10291000704700BF70B44B78012B21D00A78D0F8F3
:102920001C484FF4803505FA02F22243C0F81C28F7
:102930000A784FF4306303EB42131A5812040CD494
:102940001A588C68C97842F0805242F40042C4F3AD
:102950000A04224342EA81421A50002070BC7047A8
:102960000C78A340D0F81C489BB22343C0F81C3815
:102970000A784FF4106303EB42131C582404ECD480
:102980001E588D68CC7846F08051C5F30A0541F495
:102990000041294341EA844141EA82521A5070BC05
:1029A000002070474B78012B30B41DD00C78D0F844
:1029B0003C58012202FA04F425EA0444C0F83C48D9
:1029C0000D78D0F81C48AA4024EA0242C0F81C281E
:1029D0000A784FF4306303EB421330BC1A5822F4E8
:1029E00000421A50002070470C78D0F83C5803FA87
:1029F00004F4A4B225EA0404C0F83C480D78D0F8E9
:102A00001C48AB409BB224EA0303C0F81C380A7888
:102A10004FF4106303EB421330BC1A5822F4004207
:102A20001A500020704700BF2DE9F0034B78012BAE
:102A300077D00E784F6920244FF4306314FB0636AC
:102A400006443569ED0CED0435610E7814FB06364D
:102A50000644356925F0FF5525F4C015356197B357
:102A60008D6891F800C0904E2F4414FB0C3C013F40
:102A7000B7FBF5F78444BFB2DCF810804FEAC749D2
:102A800009EA060646EA0806CCF810600E7814FB40
:102A90000633034405FB07F51C69C5F312052543FE
:102AA000012A1D6123D0CB78012B29D00A784FF45D
:102AB000306303EB4213C25842F00442C25000207C
:102AC000BDE8F00370470D788E6814FB05350544AA
:102AD000C6F312062F693E432E610D7814FB0533B1
:102AE0000344012A1C6944F400241C61DBD10A78E8
:102AF000CB6800EB4212C2F8143BCB78012BD5D146
:102B0000D0F808380A7813F4807F4FF4306303EB71
:102B10004213C2580CBF42F0005242F08052C250E1
:102B2000C4E74C69002C71D091F80080D1F808C03E
:102B30005D4E20254FF4106315FB0838804404EBEC
:102B40000C09D8F81070FF0CFF04C8F8107091F849
:102B5000008015FB0838804409F1FF39D8F810705F
:102B600027F0FF5727F4C017C8F810700F7815FB2F
:102B700007370744B9FBFCFCD7F810804FEACC4C70
:102B80000CEA060646EA08063E610E7815FB063694
:102B90000644C4F3120C37694CEA07073761CE7854
:102BA000012E70D0012A5DD0CB78012B4CD05CB1C6
:102BB0000D78D0F83468012707FA05F53543C0F8D9
:102BC0003458CB78012B3FD00D784FF4106303EBD2
:102BD0004513C55845F00445C550CB78012B7FF40B
:102BE0006EAFCB680978002A7FF469AFA4B20334D2
:102BF000A4103FF464AF00EB013000F580500132C7
:102C000053F8041B01609442F9D158E70F784FF450
:102C10001063202515FB073707443E6926F0FF5651
:102C200026F4C0163E610E7815FB06360644376959
:102C300047F4002737610E7815FB063505442B69EC
:102C4000DB0CDB042B61ADE7D0F80838DB0510D4D2
:102C50000D784FF4106303EB4513C55845F000554C
:102C6000C550B1E70D780B6900EB4515C5F814396F
:102C7000A7E70D784FF4106303EB4513C55845F0F3
:102C80008055C550A0E70E7815FB06360644376917
:102C900027F0C04737610E7815FB063303441D69E2
:102CA00045F000551D617DE70000F81F4B78012BB2
:102CB000F0B43CD00E784F6920244FF4306514FBFB
:102CC000065606443369DB0CDB0433610B788E68EF
:102CD00014FB03540444236923F0FF5323F4C0136B
:102CE000236117BB0D7820244FF4306314FB0535A6
:102CF0000544C6F312062F6947F400272F610D78AB
:102D000014FB05350544012A2F6946EA07062E61A2
:102D10005DD00A784FF4306303EB4213F0BCC25825
:102D200042F00442C250002070474E61DAE74B691E
:102D3000002B53D091F800C08C684FF41067202608
:102D400016FB0C7C8444A342DCF810504FEAD545B6
:102D50004FEAC545CCF810500D7816FB05760644B1
:102D600098BF1C46356925F0FF5525F4C01535611F
:102D70000E7888BF4C614FF41065202313FB065674
:102D80000644C4F31204376947F4002737610E780C
:102D900013FB065303441D692C431C61012A3BD0DD
:102DA0004B6943B10A78D0F83448012505FA02F29C
:102DB0002243C0F834280A784FF4106303EB42131F
:102DC000F0BCC25842F00442C250002070470D7857
:102DD000CA6814FB053303445A619AE70E784FF42E
:102DE0001063202414FB06360644356925F0FF5590
:102DF00025F4C01535610D7814FB053505442E69A1
:102E000046F400262E610D7814FB05340444236932
:102E1000DB0CDB042361C1E70A780B6900EB42128B
:102E2000C2F81439C7E700BF30B49DF8084064B950
:102E300003339B1009D000F5805000EB02320134BF
:102E400051F8045B1560A342F9D1002030BC7047F3
:102E5000033270B495100BD000F580560A4600235B
:102E60000133346842F8044B9D42F9D101EB8501EE
:102E7000084670BC704700BF4B78012B0B7870B4CC
:102E80000CBF4FF410644FF43064202515FB03434E
:102E90001A181E58002E07DB1A5822F080421A50CA
:102EA0000A7815FB02420244136843F40013002021
:102EB000136070BC704700BF4B78012B0B7830B4A7
:102EC0000CBF4FF410624FF43062202414FB032334
:102ED0001D5825F400151D50CB78023B012B06D858
:102EE0000B7814FB0322135843F080531350002037
:102EF00030BC7047D0F8002822F4FE62C0F80028E9
:102F0000D0F80028090101F4FE631343C0F800382B
:102F10000020704708B500F500635A6822F00202ED
:102F200003205A60FDF7CEF9002008BD08B500F572
:102F300000635A6842F0020203205A60FDF7C2F9AA
:102F4000002008BD4369806918407047D0F81838E0
:102F500000F50060C0691840000C7047D0F81828D0
:102F6000D0F81C3802EA030080B2704700F53063E5
:102F700003EB411100F500608B6840691840704711
:102F8000D0F8102810B4D0F8344800EB411000F508
:102F9000106324FA01F0C001C0B29B685DF8044BD5
:102FA00010431840704700BF406900F001007047AF
:102FB000D0F8002922F4FF6222F0070200F5006336
:102FC000C0F800299A6802F00602042A05D1D0F858
:102FD000002942F00302C0F800295A6842F48072C6
:102FE0005A600020704700BF10B40024C0F8104B96
:102FF000D0F8104B44F40024C0F8104BD0F8104B1C
:1030000044F01804C0F8104BD0F8104B012944F0DC
:10301000C044C0F8104B05D14FF08021C0F8142BEC
:10302000C0F8001B00205DF8044B704708B500F0A5
:1030300059F800BF08B50C4B1A680AB90B4A1A6058
:103040001B680B4A033020F003001844904206D955
:1030500001F008FC0C2303604FF0FF3008BD024A6A
:103060001060184608BD00BF400A00208C220020D6
:1030700000FC01200122024B02600B60704700BF80
:103080000000002008B501F0EDFB582303604FF06D
:10309000FF3008BD08B501F0E5FB582303604FF091
:1030A000FF3008BD08B501F0DDFB582303600020A8
:1030B00008BD00BF08B501F0D5FB582303604FF0F1
:1030C000FF3008BD38B50D4614462846214601F0AC
:1030D00071F90028F9D038BD0846114601F094B9BD
:1030E00000F010B8BFF34F8F044A054BD16801F4CC
:1030F000E0610B43D360BFF34F8FFEE700ED00E0CC
:103100000400FA050C4B1A68002142F001021A6013
:1031100099601A6822F0847222F480321A60074A99
:103120005A601A6822F480221A60D960044B4FF06A
:1031300000629A60704700BF0038024010300024DF
:1031400000ED00E0174A184B916801F00C010429CA
:1031500003D0082903D0154A18E0154A16E0506834
:10316000516810F4800F506814BF114A0F4A01F0E3
:103170003F01B2FBF1F20B494968C1F30141C0F3D1
:103180008810013142434900B2FBF1F21A60054A4E
:1031900008499268C2F30312895C1A68CA401A602F
:1031A000704700BF00380240180000200024F400DF
:1031B000007A030A0800002008B580B1D0F8143264
:1031C00013B10023C0F8143209B1C0F81012012362
:1031D000027080F8FC3101F057FA002008BD02208F
:1031E00008BD00BF19B1C0F81412002070470220BA
:1031F000704700BF08B501F077FA002008BD00BF96
:1032000008B5D0F8143213B11B68984708B10220F2
:1032100008BD08BD08B5D0F814325B689847002097
:1032200008BD00BF38B5044600F50275284600F019
:10323000D5FA94F80812B4F80E32C4F8F831012225
:1032400001F01F039342C4F8F42115D00ED3022BD2
:1032500006D0204601F0800101F060FA002038BD60
:103260002046294600F060FA002038BD2046294655
:1032700000F0E0F8002038BD2046294600F036FA7C
:10328000002038BD10B51346044629B9D0F8F42102
:10329000032A0CD0002010BDD0F814329B69002BFB
:1032A000F8D090F8FC21032AF4D19847F2E7D0F83F
:1032B0000C11D0F8102191420CD8D0F814321B69AF
:1032C0001BB190F8FC21032A0FD0204600F0EEFA43
:1032D000002010BD891A914238BF0A4692B2C0F848
:1032E0000C11194600F0DAFAD4E79847EDE700BF71
:1032F00070B51346044649B9D0F8F421022A15D016
:1033000094F80032012B0CD0002070BDD0F814329C
:103310005B69002BF8D090F8FC21032AF4D1984780
:10332000F2E7002384F80032002070BDC269056A0C
:10333000AA421DD88369B3FBF5F605FB16365EB9C4
:103340009D4209D8D0F8F821934205D2324600F0C8
:103350008DFAC4F8F861D3E7D4F81432DB681BB1F6
:1033600094F8FC21032A0AD0204600F0ABFAC7E704
:10337000521BC261194692B200F078FAC0E72046AB
:103380009847F1E738B50021044640231D460A4618
:1033900001F0B2F92B460022C4F8105120468021DA
:1033A00001F0AAF9D4F818322562012284F8FC2130
:1033B0002BB1D4F8143221795B682046984700205D
:1033C00038BD00BF01740020704700BF90F8FC2199
:1033D00080F8FD21042380F8FC310020704700BFF5
:1033E0000346002093F8FD2183F8FC21704700BFBD
:1033F00008B590F8FC21032A01D0002008BDD0F8C0
:103400001432DB69002BF8D09847002008BD00BFBC
:1034100000207047002070470020704708B5012148
:10342000D0F8142280F8FC115268017990470020EE
:1034300008BD00BF30B54B7883B00D460446092B5C
:103440000CD8DFE803F0364A0B5B0B05690B7F16DF
:10345000AB881BB9EB88002B00F0818080212046CF
:1034600001F05CF92046002101F058F9002003B07A
:1034700030BDA9789C4D01292970EFD890F8FC3116
:10348000022B00F08A80032BE8D1002900F0218173
:103490004168012909D0C9B2FFF7BCFE29786160F3
:1034A0002046FFF7ADFE0228D8D0204600F0FEF9F6
:1034B000DCE790F8FC310122023B93424FF003011C
:1034C000CCD8D0F80432C26003B1C160204604F108
:1034D0000C01022200F0BCF9C8E790F8FC31023B75
:1034E000012BBBD86B88012BC0D1D0F8143200223D
:1034F0009B68C0F8042229469847D6E76B88012BC1
:10350000B4D1D0F81422C0F8043229469368984701
:10351000204600F0CBF9A9E76A88130A013B062B85
:103520009CD801A151F823F00D360008313600086F
:103530001F3600085D3400085D340008F5350008CA
:10354000B5350008EA88012A88D190F8FC31022BB1
:103550001CD0032B82D1011D00F07AF986E790F888
:10356000FC31AD78032B05F07F053FF477AF80F891
:10357000FE51294601F0F6F8204600F097F9002D9B
:1035800000F09980022384F8FC316FE701460023A4
:1035900041F8083F00F05CF968E7002985D0012177
:1035A0000323416080F8FC31FFF72AFE02287FF4F4
:1035B0007CAF53E7037C002B7FF450AFD0F814327C
:1035C0000DF106001B6B9847072301464370BDF8B9
:1035D0000630002B3FF44AAFEA88002A3FF446AF9A
:1035E0009A4238BF13461A462046ADF8063000F01E
:1035F0002FF93BE7037C002B7FF430AFD0F8143277
:103600000DF106005B6B98470146E0E7D0F81032F9
:10361000007C1B680DF1060198470146D7E7D2B23E
:10362000052A3FF61BAFDFE802F02B2219103D34CC
:10363000037C002B43D1D0F814320DF106009B6AB5
:103640009847022301464370C1E7D0F81032007C4E
:103650001B690DF1060198470146B8E7D0F8103212
:10366000007CDB680DF1060198470146AFE7D0F812
:103670001032007C9B680DF1060198470146A6E7D1
:10368000D0F81032007C5B680DF1060198470146C6
:103690009DE7D0F81032007C9B690DF10601984738
:1036A000014694E7D0F81032007C5B690DF1060109
:1036B000984701468BE7012384F8FC31D6E6D0F821
:1036C00014320DF10600DB6A98470223014643706D
:1036D0007DE70223416080F8FC31FFF79BFD204627
:1036E00000F0E4F8C2E600BF480A002038B590F8C0
:1036F000FC31032B04460D4602D10B79012B08D96E
:10370000802101F00BF82046002101F007F800208D
:1037100038BDD0F814329B689847EB88002BF6D15F
:10372000204600F0C3F8F2E738B54B788A88012BC1
:103730000C460546D1B223D018D3032B14D190F8F0
:10374000FC31022B16D0032B3DD163881BB94A06EE
:1037500001D000F0E3FFD5F8143221469B682846DB
:103760009847284600F0A2F8002038BD90F8FC31B8
:10377000022B13D14A06F7D000F0D0FF002038BD4D
:1037800090F8FC31022BF5D0032B1CD16388002B61
:10379000EAD14B06E5D000F0C9FFDCE7032B12D1DC
:1037A00001F07F04130600EB04144CBF143404F53D
:1037B000827400F0C3FF70B92060284621460222BF
:1037C00000F046F8D0E7802100F0A8FF284600214D
:1037D00000F0A4FFD2E701232360EEE70B7803702B
:1037E0004B784370CA788B7803EB022343804A7985
:1037F0000B7903EB02238380CA798B7903EB0223D5
:10380000C380704730B4F0B10378F3B104460023AD
:1038100014F8015F0133DBB2002DF9D15B000233F4
:10382000DCB2032513800C704D7002785AB102236C
:1038300000255C1CE4B2CA540D5510F8012F023368
:10384000DBB2002AF5D130BC704702242346E8E7FA
:1038500038B5134602250A468361C361C0F8F451A6
:10386000002100F087FF002038BD00BF08B51346D7
:103870000A46002100F07EFF002008BD38B513463F
:1038800003250A46C0F80831C0F80C31C0F8F451DD
:10389000002100F077FF002038BD00BF08B51346B7
:1038A0000A46002100F06EFF002008BD08B5002187
:1038B0000423C0F8F4310A460B4600F05BFF0020F9
:1038C00008BD00BF08B500210523C0F8F4310A4641
:1038D0000B4600F057FF002008BD00BFD0F818329B
:1038E0001BB10020C3F8140270470220704700BFCC
:1038F000D0F81C3210B5D0F818425BB194F8000231
:10390000FF2807D09B6894F8012221469847FF239F
:1039100084F80032002010BD432303800048704724
:103920001C0000204323038000487047E80000206B
:103930004323038000487047A40000200A2303802B
:10394000004870479800002038B50446D0F8185257
:1039500000F020FFD4F81832C5F80C024BB1D4F8AF
:103960001C32D5F80402DB6805F503719847002086
:1039700038BD022038BD00BF70B50B78D0F8186292
:1039800003F06002202A0C4605460DD1CA885AB1C0
:103990001B060BD44B7886F80032CB8886F80132B0
:1039A000CA883146FFF76AFF002070BDD0F81C328C
:1039B00048789B683146984728463146E288FFF7A9
:1039C00047FFF1E710B58121044600F09FFE012179
:1039D000204600F09BFE2046822100F097FED4F89E
:1039E000183253B1D4F81C325B689847D4F81802E7
:1039F00000F046FF0023C4F81832002010BD00BFBD
:103A0000F8B5037C04468121022263BB4FF40073A6
:103A100000F072FE2046012102224FF4007300F0F4
:103A20006BFE822103220823204600F065FE4FF43E
:103A3000077000F01DFF0546C4F8180218B3D4F84B
:103A40001C321B689847277CD5F804220026C5F84D
:103A500014622046C5F81862012177B1402300F0B6
:103A600091FE3046F8BD402300F046FE204601217D
:103A70000222402300F040FED3E74FF4007300F031
:103A800081FE3846F8BD0120F8BD00BF19B1C0F86D
:103A90001C12002070470220704700BFD0F8183277
:103AA0000020C3F80812C3F810227047D0F818326B
:103AB0000020C3F80412704738B5D0F8184284B11A
:103AC000D4F814520DB1012038BDB4F81032D4F836
:103AD0000822812100F04EFE01232846C4F814324A
:103AE00038BD022038BD00BFD0F8183210B57BB108
:103AF000047CD3F80422012124B1402300F042FECB
:103B0000002010BD4FF4007300F03CFE204610BDB5
:103B1000022010BD70B5044686B038B1012805D02A
:103B2000104B1A6B42F008021A6304E00D4B1A6B3B
:103B300042F008021A630C4B0C4D33F8146055F830
:103B4000240001960123022201A902930393049207
:103B5000FDF742F9314655F824000022FDF746FAF8
:103B600006B070BD0038024040E900082C0100207A
:103B700003460449044A51F8200032F81310012288
:103B8000FDF734BA2C01002040E90008034604493F
:103B9000044A51F8200032F81310FDF72CBA00BF88
:103BA0002C01002040E900081A4B1A6B10B542F0B6
:103BB00001021A635A6C42F4804286B05A6419B109
:103BC00001290FD006B010BD134B029153F820000D
:103BD00003910122022301A901920493FDF7FCF84D
:103BE00006B010BD0C4A0D4B52F820000191002484
:103BF000022201A9029304920394FDF7EDF82246F4
:103C00000F210620FCF77EFB0620FCF7ADFB06B07B
:103C100010BD00BF0038024040010020000011101C
:103C2000034B1B681A6822F040021A60704700BFFD
:103C30004C0A0020034B1B681A6842F040021A60CD
:103C4000704700BF4C0A00202DE9F0431E4C87B09E
:103C50002046FEF71DFB0346002832D11B4A1C49B3
:103C60002160516C1B4DA36041F4805195F8009088
:103C70005164116B1848636141F0010111634FF405
:103C8000007C02224FF4827E4FF00708E0270126D5
:103C9000052501A92361A362E36023626362C4F87E
:103CA0001C90C4F82C80C4F818C0C4F804E0019734
:103CB0000292039204960595FDF78EF82046FEF7D2
:103CC0001DF907B0BDE8F0834C0A0020003802401F
:103CD000003001402C0B00200000024000B50E4BCC
:103CE00087B01B68009300238DF80F008DF8173004
:103CF0000A480DF10F010DF117020123FEF766F9D5
:103D000020B10648FEF74EF9FFF79EFF9DF8170019
:103D100007B05DF804FB00BF3C0100204C0A002006
:103D200010B50B4C2278C0F347439A420ED04D2079
:103D30002370FFF7D3FF0020FFF7D0FF2078FFF7B5
:103D4000CDFF0020BDE81040FFF7C8BF10BD00BF89
:103D50002D0B002010B5104C102120460022FDF73D
:103D600045F9202100222046FDF740F90120FCF70B
:103D7000A9FA102101222046FDF738F90120FCF7AD
:103D8000A1FA002220461021FDF730F9FFF752FF7B
:103D9000024B00221A7010BD000002402D0B0020C3
:103DA00038B520251AE0FFF73BFF0120FCF78AFA1F
:103DB000102101221348FDF719F90120FCF782FABE
:103DC000102100220F48FDF711F90120FCF77AFAC3
:103DD000FFF730FF6B1E13F0FF0511D0AC20FFF78B
:103DE0007DFF5320FFF77AFF0020FFF777FF04469F
:103DF000E4B20020FFF772FF532CD4D1002038BD6D
:103E0000012038BD0000024010B5094A094B125C80
:103E10001A70FFF79FFFFFF717FF0524FFF7C0FF9A
:103E200020B1013CFAD100F009F9012010BD00BF1A
:103E3000440100202C0B002010B50446FFF770FF52
:103E400004F00100C00040F02000FFF747FFC4F37A
:103E50004720FFF743FFC4F34700FFF73FFF002071
:103E6000FFF73CFFC0B210BD70B504460E461546C4
:103E7000FFF756FF04F00100C00040F04000FFF7DC
:103E80002DFFC4F34720FFF729FFC4F34700FFF7D6
:103E900025FF3046FFF722FF15B10120FCF712FA8B
:103EA000002070BD10B5AC20FFF718FF8020FFF791
:103EB00015FF0020FFF712FF0020FFF70FFF0A2079
:103EC000FCF700FA0324102101220848FDF78EF8C0
:103ED0000120FCF7F7F9054810210022FDF786F8CC
:103EE0000120FCF7EFF9013CEDD110BD00000240CC
:103EF00010B50446AC20FFF7F1FEA020FFF7EEFE60
:103F00000020FFF7EBFEE0B2FFF7E8FE0520BDE87A
:103F10001040FCF7D7B900BF10B50446AC20FFF73E
:103F2000DDFEA820FFF7DAFE0020FFF7D7FEE0B2A3
:103F3000FFF7D4FE0520BDE81040FCF7C3B900BF71
:103F400010B504460846FFF7D3FF2046BDE81040F1
:103F5000FFF7E2BF38B50D460446FFF7E1FE4C20FF
:103F6000FFF7BCFEC4F34720FFF7B8FEC4F34700D9
:103F7000FFF7B4FE0020FFF7B1FE15B10120FCF7FA
:103F8000A1F9002038BD00BFF0B51A4D1A4E83B01C
:103F90002F46002401A9194800F0DAFF019BFF2BEE
:103FA0004FF000022046D9B217D8FFF75DFF144A40
:103FB00028683368126801300133904204F101042B
:103FC00028603360E6D10021201AFFF7C3FF0620E6
:103FD000FCF778F900233B60DCE728681146201ADB
:103FE000FFF7B8FF0620FCF76DF90020286003B04A
:103FF000F0BD00BFA40A0020540D002048E90008CD
:104000005C0D002038B50A4D2B68002453B12046C2
:10401000FFF712FF0146074800F074FF2B680134D8
:10402000A342F4D80448BDE8384000F06BBF00BF9D
:10403000540D00208CE900084CE90008022008B566
:10404000FFF796FD014800F05DFFFEE754E9000828
:10405000174A184B116C70B541F0805111641A6801
:1040600092B042F440421A60022401234FF4A87136
:1040700007224FF48006082506A8069307930D969D
:104080000E950F9111920C9410940F26FDF722FCBF
:1040900000254FF4A0524FF4805301A8052102944B
:1040A0000196039504920593FDF7FCFD12B070BDD7
:1040B000003802400070004070B5244C244D86B09A
:1040C000FFF720F8FFF7C4FFFFF73CF8FCF7CAF84A
:1040D000012220461F49FFF76FF820461E49FFF7CF
:1040E00081F81E492046FFF7D1FC2046FFF782F8F1
:1040F0000120FFF70FFD0020FFF70CFD0220FFF766
:1041000009FD0320FFF706FD00200146FFF74CFDE7
:10411000134B1A6B42F001021A6300240223284653
:10412000012201A9F0260493029201960394FCF760
:1041300053FE284622462021FCF758FF28462246F7
:104140001021FCF753FF06B070BD00BF300B0020FC
:10415000000002407801002060000020540100208F
:1041600000380240F0B583B0FFF7A6FF3E4B93F94D
:1041700000309BBB4FF4FA70FCF7A4F80320FFF764
:1041800043FE002867D1394800F0BCFE384C394F57
:10419000394E25462368FF2B13D03848344900F0A8
:1041A000D7FE2B68012B4FD0022B44D0032B2BD0F2
:1041B000042B1DD0052B12D0FFF724FF2368FF2B03
:1041C000EBD10020FFF7E2FC2820FCF77BF8002071
:1041D000FFF7DCFC2820FCF775F8F2E7FEE7FFF7B5
:1041E00061FE6420FCF76EF8254800F08BFED1E7F5
:1041F0002248214900F0ACFE3078FFF705FE70BB85
:10420000204800F07FFEC5E70DF106011E4800F0D2
:104210009FFE0DF107011C4800F09AFE9DF9060073
:104220009DF90710FFF78CFE0A20FCF74BF81748A2
:1042300000F068FEAEE70F49104800F089FE3968CB
:10424000134800F05FFEA5E7FFF79EFE0146114808
:1042500000F058FE9EE7104800F054FE96E70F4825
:1042600000F050FE96E700BF5001002060E9000812
:10427000A00A00205C0D0020580D002048E900082D
:10428000D0E90008ACE9000890E9000898E90008C6
:1042900080E900087CE9000870E90008BCE9000832
:1042A000704700BFFEE700BFFEE700BFFEE700BFAC
:1042B000FEE700BF704700BF704700BF704700BFF8
:1042C000FBF7F2BF0148FCF71FBF00BFDC1D002059
:1042D000014B186BFCF76AB8600D00200148FEF72F
:1042E0009FB800BF600D00200148FDF7DFBF00BF91
:1042F000A01D002000207047044B0A685A6400206B
:10430000012283F848201864704700BFA80A0020E3
:1043100010B5074C074900222046FFF7BFFB204697
:104320000549FFF7C3FB054B01221A70002010BDA1
:10433000300B00209C0D0020A80A00209C150020B6
:1043400020282DE9F00115D021280FD1174B1A682C
:104350000A701A68120A4A705A888A70DA78CA7023
:104360001A790A715A794A719B798B710020BDE8DC
:10437000F00170478D7891F801C00F78CE780B4B23
:104380000B4A91F804804C79887998712D0445EA9C
:104390000C253D43002145EA066583F804805C71E5
:1043A00011701D600020BDE8F00170474801002039
:1043B0005001002038B5124C94F94830ABB1226C52
:1043C000656CAD1AA942B8BF0D46002D0BDDA118D2
:1043D0002A4600F0F9FC236C626C2B449342236460
:1043E00005DA284638BD002038BD184638BD002300
:1043F000044884F84830FFF777FB284638BD00BFF3
:10440000A80A0020300B0020B1F5007FF8B50E4659
:10441000074611DD0024351BB5F5007FA8BF4FF41A
:10442000007529463819FFF7EFFFA8421DD1013466
:10443000B442F0D13046F8BD0E4BD3F81852D5F83F
:104440001442002CFBD139460A48B2B2FFF726FBD2
:104450000848FFF731FB50B9D5F81432002BE9D0EA
:10446000D5F81432002BF7D1E4E72044F8BD2046FC
:10447000F8BD00BF300B00200148FFF735BB00BF7F
:10448000300B00202DE9F0410368B3F1A04F86B056
:104490006CD0534A934202D006B0BDE8F081514C33
:1044A0005148236B43F001032363236B43F0020362
:1044B0002363236B43F004032363236B43F08003E4
:1044C0002363236B43F480732363002502270A26AA
:1044D00001A920234FF00308019302970395CDF81B
:1044E00010800596FCF778FC01A908233E4801934B
:1044F00002970395CDF810800596FCF76DFC01A995
:1045000043F6234339480193029703950596FCF738
:1045100063FC01A901233648019302970395059690
:10452000FCF75AFC01A91023324801930297039526
:104530000596FCF751FC01A94FF400632E48019346
:10454000029703950596FCF747FC236B43F08043E5
:104550002363236B43F000532A4623634D20062137
:10456000FBF7D0FE4D20FBF7FFFE95E71D4C1E48E4
:10457000236B43F0010323630025022201A90323D7
:104580000A264FF4C05702920197049303950596AB
:10459000FCF722FC01A94FF4007313480193029524
:1045A00003954FF48067FCF717FC01A91222012341
:1045B0000D480292039305960197FCF70DFC636B7F
:1045C00043F080036363636C43F480432A4663646F
:1045D00043200621FBF796FE4320FBF7C5FE5BE771
:1045E0000000044000380240000002400004024085
:1045F00000080240001C02400020024000F55F71EC
:10460000D0F8AC03FEF70EBEC1EBC10300EB830391
:10461000D0F8AC03D3F8E021FEF734BEC1EBC10300
:1046200000EB8303D0F8AC03DA6BFEF761BE00BF8A
:10463000D0F8AC03FEF7DCBE10B5C168044600310B
:10464000D0F8AC0318BF0121FEF7BCFED4F8AC03D0
:10465000BDE81040FEF796BED0F8AC03FEF7B6BE3C
:10466000D0F8AC03FEF7BCBED0F8AC03FEF7D2BE68
:10467000D0F8AC03FEF7CCBED0F8AC03FEF7CCBE4E
:10468000D0F8AC03FEF7CABE70B5154B154C00252B
:10469000C4F8AC03042283F823504FF0A041022356
:1046A000C0F820424026204684E80600A361E3606B
:1046B000A56225612562E56165626661FCF7A0FC83
:1046C00020468021FDF702F9294632462046FDF7B3
:1046D000D7F8204601218022FDF7D2F8284670BD88
:1046E00000ED00E0DC1D002008B5D0F82002FCF74A
:1046F000F5FC002008BD00BF10B51446D0F820021C
:104700001A462346FCF79EFF002010BD08B5D0F8DE
:104710002002FCF7CBFF002008BD00BF08B5D0F891
:104720002002FDF751F8002008BD00BF08B5D0F801
:104730002002FDF77BF8002008BD00BF0A06D0F874
:10474000203206D4C1EBC10103EB810393F8D601FB
:10475000704701F07F01C1EBC10103EB810393F8C6
:104760003200704708B5D0F82002FCF759FF00204E
:1047700008BD00BF08B5D0F82002FCF7F7FF002005
:1047800008BD00BF08B5D0F82002FCF7B7FF002035
:1047900008BD00BF08B5D0F82002FCF7DDFF08BD5A
:1047A00012230B80004870476401002004230B8013
:1047B000004870479401002010B5044C04480A4694
:1047C0002146FFF71FF8204610BD00BF8C210020B6
:1047D000E0E9000808B50A4628B106480649FFF78F
:1047E00011F8054808BD05480349FFF70BF80248D2
:1047F00008BD00BF18EA00088C210020F4E9000879
:1048000008B50A4628B106480649FEF7FBFF0548E9
:1048100008BD05480349FEF7F5FF024808BD00BF83
:104820004CEA00088C2100203CEA000810B5044C3A
:1048300004480A462146FEF7E5FF204610BD00BFAA
:104840008C2100205CEA000810B5044C04480A469C
:104850002146FEF7D7FF204610BD00BF8C21002067
:1048600068EA0008014B1868704700BFC0050020C7
:10487000024B0146186800F00BB800BFC0050020CD
:10488000024B0146186804F02BB800BFC005002099
:104890002DE9F04F01F10B05162D83B0064627D9FF
:1048A00035F0070527D4A94225D8304600F026FB6D
:1048B000B5F5FC7F26D2C14F4FEAD50C07EBCC03F0
:1048C000DC689C4200F0D2816368E268A16823F052
:1048D0000303234430465D68CA6045F001059160DA
:1048E0005D6000F00DFB0834204603B0BDE8F08F9A
:1048F0001025A942D9D900240C232046336003B0E7
:10490000BDE8F08F5FEA552C00F08A80BCF1040FFF
:1049100000F260814FEA951C0CF1380C4FEA4C0113
:10492000A64F07EB8101CC68A14205D10CE0002B1A
:104930007ADAE468A14207D0626822F00302531BCE
:104940000F2BF4DD0CF1FF3C0CF1010C9B4B3C698F
:1049500003F1080E744500F07E81616821F00301C7
:104960004A1B0F2A00F36481002AC3F814E0C3F83D
:1049700010E06ADAB1F5007F80F03A81C90803EBF4
:10498000C1004FEAA1085A688168A1604FF001098F
:1049900009FA08F848EA0202E0605A608460CC60D4
:1049A0004FEAAC030120984090425BD8024206D106
:1049B0002CF0030C400002420CF1040CFAD007EB7F
:1049C000CC084446E146E3689C4207D145E1002A11
:1049D00080F25681DB689C4200F03F81596821F0EB
:1049E00003014A1B0F2AF2DD1C46D3F80CC054F811
:1049F000088F591945F0010942F00105C3F80490E8
:104A00003046C8F80CC0CCF8088079613961C1F82B
:104A10000CE0C1F808E04D608A5000F071FA63E7DD
:104A20007E214FF03F0C7BE72244E3685068A16889
:104A300040F00105CB6030469960556000F060FAA7
:104A40000834204603B0BDE8F08F214430464B685F
:104A500043F001034B6000F053FA0834204603B0E2
:104A6000BDE8F08FBC68636823F00309A94504D34F
:104A7000C5EB09030F2B00F39180514B514A196884
:104A80001368013305EB010A04EB090B00F06181A7
:104A90000AF5805A0AF10F0A2AF47F6A2AF00F0AEF
:104AA00030465146019200F041FAB0F1FF3F804696
:104AB000019A00F00081834500F2FA80DFF810C10E
:104AC000DCF80030C3455344CCF8003000F04A8194
:104AD00012683C4901321BBFCBEB080B5B44C1F8A9
:104AE0000080CCF8003018F0070300F01381C3F108
:104AF0000802C3F5805390440833C244CAF30B0A3A
:104B0000CAEB030A51463046CDF804C000F00EFA55
:104B1000431CDDF804C000F03581C8EB00025244AC
:104B200042F00102DCF80030C7F808805344BC4270
:104B3000C8F80420CCF80030DFF894A015D0B9F103
:104B40000F0F40F2EA806168A9F10C0222F007021F
:104B500001F0010EA118052042EA0E0E0F2AC4F83A
:104B600004E04860886000F21181174ABC6811684F
:104B70008B4288BF1360154A11688B4288BF13604F
:104B8000626822F003029542C5EB020301D80F2BA5
:104B900004DC304600F0B4F90024A5E6621943F0C5
:104BA000010345F0010565603046BA60536000F0CE
:104BB000A7F90834204603B0BDE8F08FC4050020F3
:104BC000FC0A0020D0090020F80A0020F40A002086
:104BD000000B0020BCF1140F61D9BCF1540F00F29E
:104BE0008F804FEA153C0CF16E0C4FEA4C0197E6B2
:104BF0004B0A042B58D9142B00F2AE8003F15B0250
:104C0000500007EB8000DFF8BC818368834200F02E
:104C10008A805A6822F00302914202D29B6898422D
:104C2000F7D1D9687A68E160A3608C60DC60B7E690
:104C3000611942F0010745F0010565603046596190
:104C40001961C1F80CE0C1F808E04F608A500834DF
:104C500000F056F948E65A68A2E609F1010919F090
:104C6000030F04F108047FF4AEAE2DE004F1080355
:104C70006469A34208BF0CF1020C3FF467AE23E65F
:104C800019441C464868DB6854F8082F40F00105B9
:104C90004D603046D3609A6000F032F924E60CF1A2
:104CA0005B0C4FEA4C013BE68A0938325000A8E71A
:104CB000BC423FF403AFBC68626822F0030262E7C3
:104CC000D8F8008098457BD11CF0030FA8F10803A9
:104CD0000CF1FF3CF4D17B6823EA00037B604000C9
:104CE00098423FF6BFAE00283FF4BCAE0342CC462C
:104CF0007FF465AE400003420CF1040CFAD05EE68E
:104D0000BCF5AA7F1AD84FEAD53C0CF1770C4FEAD4
:104D10004C0105E64FF48053EFE60123C8F8043058
:104D2000444600222FE791100120D8F8042000FA11
:104D300001F10A43C8F80420194674E740F25453BD
:104D40009C451BD84FEA954C0CF17C0C4FEA4C016A
:104D5000E6E50AF1100AA3E6542B1FD80A0B6E32BF
:104D600050004EE7CBF30B0100297FF4B1AE0AEB04
:104D70000901BA6841F001015160F6E6FC214FF0EB
:104D80007E0CCDE501224FF0000ACBE604F10801CC
:104D9000304603F0A5FDDAF80030E6E6B3F5AA7F69
:104DA00003D8CA0B773250002BE740F2545293429B
:104DB00003D88A0C7C32500023E7FC207E2220E7B7
:104DC0007B688CE7C4050020844641EA000313F0A9
:104DD00003036DD1403A41D351F8043B40F8043B02
:104DE00051F8043B40F8043B51F8043B40F8043BC5
:104DF00051F8043B40F8043B51F8043B40F8043BB5
:104E000051F8043B40F8043B51F8043B40F8043BA4
:104E100051F8043B40F8043B51F8043B40F8043B94
:104E200051F8043B40F8043B51F8043B40F8043B84
:104E300051F8043B40F8043B51F8043B40F8043B74
:104E400051F8043B40F8043B51F8043B40F8043B64
:104E500051F8043B40F8043B403ABDD2303211D304
:104E600051F8043B40F8043B51F8043B40F8043B44
:104E700051F8043B40F8043B51F8043B40F8043B34
:104E8000103AEDD20C3205D351F8043B40F8043B04
:104E9000043AF9D2043208D0D2071CBF11F8013B02
:104EA00000F8013B01D30B8803806046704700BFC8
:104EB000082A13D38B078DD010F003038AD0C3F1D7
:104EC0000403D21ADB071CBF11F8013B00F8013BB9
:104ED00080D331F8023B20F8023B7BE7043AD9D378
:104EE000013A11F8013B00F8013BF9D20B7803704D
:104EF0004B7843708B78837060467047704700BF73
:104F0000704700BF0FB400B5074A83B004AB106808
:104F100053F8042B8168019300F02EF803B05DF87C
:104F200004EB04B0704700BFC005002038B5074C43
:104F30000023054608462360FEF77CF8431C00D09A
:104F400038BD2368002BFBD02B6038BD280B002018
:104F50000FB400B5074A83B004AB106853F8042BB4
:104F60004168019302F024FA03B05DF804EB04B049
:104F7000704700BFC00500202DE9F04FC9B01C46A6
:104F800089460A920D9003F0DFFD0068159004F049
:104F9000D1FC0D9D18900F941DB1AB6B002B00F050
:104FA0000981B9F80C2093B299040AD4D9F8641095
:104FB00042F4005321F40051A9F80C30C9F86410F0
:104FC0009BB21A0740F1C080D9F81020002A00F0E7
:104FD000BB8003F01A030A2B00F0C28038ACA44651
:104FE00008942B9400250024CDE916450023119345
:104FF0002D932C931A931993109366460A9D2B7840
:10500000002B00F0DB80252B00F0D8806A1C02E02A
:10501000252B00F08B80144601322378002BF7D12A
:105020000A98251A7DB12C9B2D9A0A98306001337D
:105030002A44072B75602D922C9300F3A480083628
:105040001099294410912378002B00F0A4800023AC
:10505000651C94F801808DF88F304FF0FF341A46AC
:105060000E9309930A950B942B460133A8F1200166
:10507000582900F2F883DFE811F03702F603F6034F
:105080000303F603F603F603F603F603F6033E0204
:105090003302F60360003503F60375037C037C03DB
:1050A0007C037C037C037C037C037C037C03F6038E
:1050B000F603F603F603F603F603F603F603F60328
:1050C000F60353039D03F6039D03F603F603F6036D
:1050D000F6038D03F603F603D403F603F603F60393
:1050E000F603F603A302F603F603C302F603F60380
:1050F000F603F603F603F603F603F603F603F603E8
:105100000A031C039D039D039D03D9021C03F603A0
:10511000F603E202F603EE020A021C024B02F60359
:105120005402F603A300F603F6037B020A99651AFC
:1051300078E70E9C0F9164420E94099D45F004059A
:10514000099593F8008090E70D98494602F044F9DC
:10515000A0B9B9F80C3003F01A030A2B7FF43EAF64
:10516000B9F90E30002BFFF639AF0D980A9A49466F
:10517000234601F0A3F949B0BDE8F08F4FF0FF30AE
:1051800049B0BDE8F08F0D9849462BAA07F0D2F937
:1051900040B938AE54E72D9B23B10D9849462BAA50
:1051A00007F0C8F9B9F80C305B06E7D4109849B09D
:1051B000BDE8F08F284603F0FFF9F2E60A9C42E7CB
:1051C000099C0A93A20640F106820F9DEB1D23F075
:1051D000070303F1080CD3E90045CDF83CC00123D7
:1051E0004FF0000A8DF88FA00B99002905DBDDF840
:1051F00024C02CF0800CCDF824C054EA050040F007
:105200004B830B99002940F04783002B40F0BD846D
:10521000DDF824C01CF0010F00F0B78448AF302344
:1052200007F8413D089DEC1BDDF82CC000256445C6
:10523000A8BFA446CDF830C01495BAF1000F02D033
:105240000C9D01350C95099B13F00203129302D0BB
:105250000C9D02350C95DDF824C01CF0840CCDF8B3
:105260004CC040F016830E9DDDF830C0CCEB050B32
:10527000BBF1000F40F30D83BBF1100F2D992C9A59
:10528000DFF828A527DD1B9710255746A2460D9C61
:1052900006E0ABF1100BBBF1100F06F1080617DDAD
:1052A00001321031072A2D912C9237607560F0DDA4
:1052B000204649462BAA07F03DF900287FF472AF3B
:1052C000ABF1100BBBF1100F2D992C9A38AEE7DC27
:1052D0005446BA461B9F01320BEB010C072ACDF84E
:1052E000B4C02C9286E8000C00F39E849DF88FA039
:1052F0000836BAF1000F0FD02C9B01330CF1010CD2
:105300000DF18F010122072BCDF8B4C02C9386E854
:10531000060000F320840836129B73B12C9B0133E6
:105320000CF1020C24A90222072BCDF8B4C02C9357
:1053300086E8060000F31C840836139D802D00F0DB
:105340004C830B9A151B002D3DDD102D2C9BDFF897
:1053500060A42CDD51460B94AA464FF0100B624618
:105360000D9C0D4606E0AAF1100ABAF1100F06F1E5
:10537000080617DD01331032072B2D922C9386E897
:105380002008F0DD204649462BAA07F0D3F8002874
:105390007FF408AFAAF1100ABAF1100F2D9A2C9BD6
:1053A00038AEE7DC94460B9C2A46554692460133BC
:1053B000AC44072BCDF8B4C02C93C6F800A07560A0
:1053C00000F3BD830836099DEB0500F1A6822C9BF6
:1053D00037600133A444072BCDF8B4C074602C931C
:1053E00000F397830836099C620740D50E9D0C9800
:1053F0002C1A002C3BDD102C2C9BDFF8B0A322DDF7
:1054000010256246DDF83480574604E0103C102C2D
:1054100006F1080615DD01331032072B2D922C936F
:1054200037607560F2DD404649462BAA07F082F8E6
:1054300000287FF4B7AE103C102C2D9A2C9B38AE70
:10544000E9DC9446BA460133A444072BCDF8B4C036
:105450002C93C6F800A0746009DD0D9849462BAA6C
:1054600007F068F800287FF49DAEDDF8B4C0109C0A
:105470000C980E9DA842ACBF241864191094BCF17E
:10548000000F40F0528300232C9338AEB6E5DDF8D0
:1054900024C00A931CF0200300F0CE810F9CE31D72
:1054A00023F0070303F108050F95D3E90045002316
:1054B00096E60F9ADDF824C00A93151D30234FF0AD
:1054C00078084CF0020CB7488DF890300F951468AE
:1054D000CDF824C000258DF891801A9002237FE634
:1054E00093F800802B22C0E593F80080002A7FF417
:1054F000BCAD2022B9E50F9C0F9D24680E94002CB2
:1055000005F10401FFF615AE0F9193F80080ACE5AC
:10551000DDF824C04CF0200CCDF824C093F80080B6
:10552000A3E50F9C0A9327684FF0000A8DF88FA01F
:10553000251D002F00F06B860B9C002C3846C0F216
:1055400016865146224603F0B7FB002800F0AB86D2
:105550000B9C0F95C01BA042B8BF044624EAE4751B
:10556000CDF82CA0CDF850A00C959DF88FA064E646
:10557000099D8C4C0A93AF061A948DF88F2047D55D
:10558000DDF83CC00CF1070323F0070303F1080426
:105590000F94D3E90045DDF824C01CF0010F00F0A2
:1055A000F88254EA050000F0F48230234CF0020C3B
:1055B0008DF890308DF89180CDF824C002230FE64D
:1055C000DDF824C00A934CF0100CCDF824C0099CDF
:1055D000A2063FF5FAAD099CE30600F13483DDF83D
:1055E00024C01CF0400F00F02E83DDF83CC0BCF856
:1055F00000400CF1040C00250123CDF83CC0EFE580
:10560000099D694C0A93AF068DF88F201A94B7D480
:10561000099DED0640F1EC84DDF83CC0DCF800406B
:105620000CF1040CCDF83CC00025B4E7DDF824C033
:105630004CF0400CCDF824C093F8008015E593F8A9
:105640000080B8F16C0F194600F07C85099D45F08B
:105650001005099509E5DDF824C00A931CF0200F18
:105660008DF88F2000F0A8840F9C2168109CE5170E
:105670002B460F9D224604350F95C1E90023BDE45A
:10568000099D45F00105099593F80080EDE40F9A16
:105690000F9D0A9312688DF8B82000230124043569
:1056A0009A460C940F958DF88F300B9314932EAF70
:1056B000C9E5099C0A93A3068DF88F203CD50F9D60
:1056C000E91D21F00701D1E9002308310F911446AB
:1056D0001D46002A73F10000C0F2D1839DF88FA00F
:1056E000012381E593F80080B8F12A0F03F101004E
:1056F00000F0BD86A8F13001092998BF002300F20F
:105700001B8610F8018B03EB830301EB4303A8F125
:1057100030010929F5D943EAE3730B930346A5E465
:10572000DDF824C00A934CF0100CCDF824C0099C7D
:105730008DF88F20A306C2D4DDF824C01CF0100F12
:1057400040F0B382099C670640F1AF82DDF83CC0AF
:10575000BCF900400CF1040CE51722462B46CDF8AD
:105760003CC0B6E7099D45F08005099593F8008097
:105770007BE40024A8F130010E94204613F8018B3D
:1057800000EB800001EB4000A8F130010929F5D9B8
:105790000E906BE4099D45F00805099593F800808B
:1057A00063E400BFB4EA0008A0EA000880EA000849
:1057B000D4EA00080F9D099C0A93EB1D25078DF87C
:1057C0008F2023F0070340F10B84D3E90045CDE996
:1057D000164503F1080CCDF83CC0DDE9160103F0D5
:1057E000DDFF0128DDE9160140F05383002200238C
:1057F00008F008FD002840F03C859DF88FA00325A7
:105800000C95099D9E4F9F4B25F08005002409951E
:1058100000250B94B8F1470FD8BF1F4603241495F9
:105820000BE5099D0A9345F010050995DDF824C0A4
:105830001CF020037FF432AEDDF824C01CF010020F
:1058400040F03F82DDF824C01CF0400300F03982B4
:10585000DDF83CC0BCF800400CF1040C13460025F8
:10586000CDF83CC0BCE40A938DF88F20B8F1000F4E
:105870003FF491AC00234FF0010C9A46CDF830C0B4
:105880008DF8B8808DF88F300B93149364462EAF4B
:10589000D9E4DDF8B4C02CE5012B00F0E380022B45
:1058A0000DF1DF0318D1DDF868C0194604F00F00D0
:1058B000220942EA05720F462B091CF800103970C4
:1058C00052EA030014461D4607F1FF31EED1089D50
:1058D000CDE91E23EC1BA7E4E00840EA457004F084
:1058E0000702E908303250EA010C1F461A700446DC
:1058F0000D4603F1FF33EFD1099CCDE91C01E00710
:10590000394640F1B880302A00F0B580089D1F4626
:105910003023EC1B01F8013C86E4B8F1650F40F33D
:10592000B780DDE9160100220023CDF81CC008F085
:105930005FFCDDF81CC0002800F02E812C9B524A31
:10594000326001330CF1010C0122072BCDF8B4C0F9
:105950002C93726000F36C830836259B119CA34244
:1059600003DB099DEF077FF53EAD2C9B189D159C31
:1059700034600133AC44072BCDF8B4C075602C9370
:1059800000F3E9830836119D6C1E002C7FF72BADC8
:10599000102C2C9BDFF8F4A040F39C81102562466C
:1059A000DDF83480574604E00836103C102C40F3F4
:1059B0008F8101331032072B2D922C933760756045
:1059C000F2DD404649462BAA06F0B4FD00287FF4DC
:1059D000E9AB2D9A2C9B38AEE7E70E980C99451A47
:1059E000002D7FF7AEAC102D2C9BDFF8A0A02CDD96
:1059F00051461294AA464FF0100B62460D9C0D467C
:105A000006E0AAF1100ABAF1100F06F1080617DD38
:105A100001331032072B2D922C9386E82008F0DDFD
:105A2000204649462BAA06F085FD00287FF4BAAB34
:105A3000AAF1100ABAF1100F2D9A2C9B38AEE7DCB0
:105A40009446129C2A46554692460133AC44072B95
:105A5000CDF8B4C02C93C6F800A0756000F30282A4
:105A600008366EE4002D08BF0A2C80F03F8148AF55
:105A7000303407F8414D089DEC1BFFF7D5BB00BF44
:105A800094EA000890EA0008D0EA0008D4EA000886
:105A9000119C012C2C9C40F3A78101340CF10105D1
:105AA0000123072C2D952C943760736000F3B78188
:105AB000083618981599316001340544072C2D9546
:105AC0002C94706000F3C2810836DDE916010022D3
:105AD000002308F08DFB002840F0BD80119A0134AE
