:020000040800F2
:1000000000000220490200089D3800089F380008BF
:10001000A1380008A3380008A53800080000000037
:10002000000000000000000000000000A7380008E9
:10003000A938000800000000AB380008AD380008FF
:100040005F0200085F0200085F0200085F0200080C
:100050005F0200085F0200085F0200085F020008FC
:100060005F0200085F0200085F0200085F020008EC
:100070005F0200085F0200085F0200085F020008DC
:100080005F0200085F0200085F0200085F020008CC
:100090005F0200085F0200085F0200085F020008BC
:1000A0005F0200085F0200085F0200085F020008AC
:1000B0005F020008D53800085F0200085F020008F0
:1000C0005F0200085F0200085F0200085F0200088C
:1000D0005F020008C93800085F0200085F020008DC
:1000E0005F0200085F0200085F0200085F0200086C
:1000F0005F0200085F0200085F0200085F0200085C
:100100005F0200085F0200085F0200085F0200084B
:100110005F0200085F0200085F0200085F0200083B
:100120005F0200085F0200085F0200085F0200082B
:100130005F0200085F0200085F0200085F0200081B
:100140005F0200085F0200085F0200085F0200080B
:100150005F0200085F020008BD3800085F02000867
:100160005F0200085F0200085F0200085F020008EB
:100170005F020008B13800085F02000800000000BC
:100180005F0200085F02000807B5244A244B9A4228
:100190004FF0000302D242F8043BF7E7214A22491C
:1001A0009818884204D22149595899500433F5E7E8
:1001B00002F028FE684601A902F01CFE1C4D1D4BF2
:1001C000ED1AAD1000241E46AC4204DA56F8242085
:1001D00090470134F8E7184B184DED1AAD10002484
:1001E0001E46AC4204DA56F8242090470134F8E762
:1001F000134D144C9DE8030003F018FB641BA4107E
:10020000064605EB8405002C04DD55F8043D013C51
:100210009847F8E7304602F0C9FD00BFC409002046
:100220005C21002000000020C4090020484500088F
:100230006002000860020008600200086002000816
:100240006002000860020008FFF79EBFFEE7FEE7BD
:10025000FEE7FEE7FEE7FEE7FEE7FEE7FEE7FEE776
:100260007047000008B50E4B1A6842F400721A601D
:100270001A6842F480621A601A6842F480721A6046
:10028000084B18684FF47A73B0FBF3F000F03AF8BB
:10029000032000F025F8FFF7E3FF002008BD00BFB2
:1002A000003C024018000020024B1A6801321A601C
:1002B000704700BFC4090020014B1868704700BF99
:1002C000C409002082B0054B01901968019A0A44C4
:1002D00019689142FCD302B0704700BFC4090020E6
:1002E000074AD36823F4E0631B041B0C43F0BF638D
:1002F00043F4003300F0070043EA0023D360704763
:1003000000ED00E00138B0F1807F0AD2064B074AC9
:100310005860F02182F823100020072298601A60AC
:1003200070470120704700BF10E000E000ED00E0E2
:10033000F0B490F83440012C2ED00468022580F8E7
:1003400035502668856826F00106402D4FF00107DC
:1003500080F83470266063600BBFA260A160E1602A
:10036000E260236843F010032360236843F008032E
:100370002360236843F004032360636943F0800330
:100380006361236843F002032360236843F00103A1
:1003900023600020F0BC70470220F0BC704700BF13
:1003A000036895498B4270B51A46044610D99348A4
:1003B00058398342496814D01830834200F03C8495
:1003C0001830834214BF4FF000704FF4002009E052
:1003D0008B498B422BD98B4801F5527183420968B6
:1003E000EAD1082008420CBF00210121002951D088
:1003F000196848074ED518687F4920F004008B42E1
:1004000018601ED9804818318B42C06800F01C84E7
:1004100018318B4200F0E4837C4DAB420CBF4FF4AB
:1004200000254FF0007578492843C86022E07849DC
:100430008B4240F277827748583983424968BBD172
:10044000CFE76F498B4240F205836F4801F5567143
:100450008B42806800F0B88318318B4200F06884CA
:100460006D4DAB420CBF4FF400254FF0007566494F
:1004700028438860E66CA16C46F001060420002544
:10048000E66484F8345084F8350019B12046884772
:1004900023681A4658498B4210D958485839834224
:1004A000496815D01830834200F01B83183083420E
:1004B00014BF4FF480004FF480300AE050498B4263
:1004C00040F2BE814F4801F5527183420968E9D17B
:1004D000524808420CBF00210121002947D0596928
:1004E000090644D55869444920F080008B42586180
:1004F00014D9454818318B42C06800F0A3831831E5
:100500008B4200F06B83414DAB420CBF4FF4803502
:100510004FF480053C492843C86018E038498B42B5
:1005200040F26282384801F556718B42806800F0D3
:100530004D8318318B4200F0FF83374DAB420CBF27
:100540004FF480354FF480052F4928438860E66CCE
:10055000A16C46F0020604200025E66484F83450BD
:1005600084F8350019B12046884723681A46224985
:100570008B4210D9214858398342496815D0183028
:10058000834200F0B6821830834214BF4FF080706F
:100590004FF480200AE01A498B4240F25B811948EF
:1005A00001F5527183420968E9D11D4808420CBF28
:1005B0000021012100295ED019688E075BD51868DB
:1005C0000D4920F002008B4218602BD90E481831DB
:1005D0008B42C06800F0348318318B4200F00383F3
:1005E0000A4DAB420CBF4FF480254FF08075064991
:1005F0002843C8602FE000BF586402407064024086
:10060000B86002401064024000640240A0640240EE
:100610005860024070600240406402400100800067
:1006200004008000AD498B4240F2A881AC4801F53E
:1006300056718B42806800F0CB8218318B4200F0FB
:100640007D83A84DAB420CBF4FF480254FF08075E1
:10065000A34928438860E66CA16C46F00406042098
:100660000025E66484F8345084F8350019B120463A
:10067000884723681A469C498B4210D99B485839B1
:100680008342496815D01830834200F02C8218301C
:10069000834214BF4FF080604FF480100AE08F490E
:1006A0008B4240F2E180924801F552718342096821
:1006B000E9D1102008420CBF00210121002950D0AF
:1006C00019680D074DD51A68500322D41A68D6054B
:1006D00003D41A6822F008021A60834A934240F257
:1006E0009C817F4918329342C96800F075821832A4
:1006F000934200F034837F4883420CBF4FF4801054
:100700004FF08060764A0143D160312284F8352071
:1007100020E0754A934240F24A817149183293426F
:10072000C96800F057821832934200F01B83714869
:1007300083420CBF4FF480104FF08060684A014341
:10074000D1601A681103E0D51A68120302D541225C
:1007500084F83520226C002A00F06C8220469047F5
:100760002268614B9A4210D96049583B8A425B68C3
:1007700014D018318A4200F0B98118318A4214BF6E
:100780004FF000614FF4001109E0544B9A4275D9C3
:10079000574903F552738A421B68EAD12021194256
:1007A0000CBF00230123002B49D01368DD0646D57A
:1007B000136858036CD41368DB0503D4136823F063
:1007C00010031360484B9A4214D9454918339A4292
:1007D000C96800F03C8218339A4200F0078218334F
:1007E0009A4214BF4FF000624FF400123C4B0A4390
:1007F000DA6018E0394B9A4240F25A81384903F5E1
:1008000056739A42896800F0718218339A4200F058
:100810009B8218339A4214BF4FF000624FF40012CB
:100820002F4B0A439A60E26CE36BE26411210022D1
:1008300084F8351084F834200BB12046984770BDF9
:100840002D498B4260D92D485839834249687FF43D
:1008500029AE3DE628498B4239D928485839834288
:1008600049687FF48CAEA0E623498B4253D92348D4
:100870005839834249687FF406AF1AE71E4B9A4203
:100880001ED91E49583B8A425B687FF472AF85E7E8
:10089000154B9A424DD9124918339A42C96800F053
:1008A000D88118339A4200F0B9811248824214BFAD
:1008B0004FF000604FF40010094B0143D96054E041
:1008C0000F49104B8A421B687FF453AF66E70C4810
:1008D0000C49834209687FF452AE66E6B860024074
:1008E0000064024040640240586402407064024068
:1008F00010640240A06402405860024070600240F0
:100900001060024000600240BA48BB498342096857
:100910007FF4C8ADDCE5B748B749834209687FF486
:10092000B2AEC6E6B348B449834209687FF444AD29
:1009300057E5B24B9A4200F2A580B14BAE499A42BC
:1009400040F29C8118339A42C96800F0E78118335D
:100950009A4200F02782AB48824214BF4FF00060F9
:100960004FF40010A44B0143D9601368190300F140
:100970005881636C002B7FF460AF60E7A0499E480C
:100980008B4240F2CF8018318B42C06800F0B681B4
:1009900018318B4200F0FD819A4DAB420CBF4FF4F1
:1009A00080254FF0807594492843C86053E6934AE8
:1009B000934200F2A180924A8F49934240F2828191
:1009C00018329342C96800F0AD811832934200F0AA
:1009D000EC818C4883420CBF4FF480104FF0806054
:1009E000854A0143D160ACE6854983488B4240F299
:1009F000D78018318B42C06800F07A8118318B4261
:100A000000F0C5817F4DAB420CBF4FF480354FF4F1
:100A1000800579492843C86099E5784A934200F2F5
:100A2000A980774A7449934240F23A81183293423E
:100A3000C96800F075811832934200F0B98171489D
:100A400083420CBF4FF480104FF080606A4A01432C
:100A5000D1605AE66A4968488B4277D918318B428F
:100A6000C06800F04D8118318B4200F09581654DD2
:100A7000AB420CBF4FF400254FF000755E49284390
:100A8000C860F7E4604903F556739A42896800F03C
:100A90002B8118339A4200F054815C48824214BF83
:100AA0004FF000604FF40010574B014399605CE732
:100AB000534B51499A4240F2CE8018339A42C9684A
:100AC00000F0288118339A4200F0698118339A4265
:100AD00014BF4FF000624FF40012474B0A43DA6034
:100AE000A1E64020F5E44FF48060E3E54FF40061B7
:100AF00055E64FF4807059E5434902F5567293422A
:100B0000896800F0F9801832934200F02E813F4846
:100B100083420CBF4FF480104FF080603A4A01438B
:100B200091600EE6334980688B4200F0ED80183109
:100B30008B4200F01181364DAB420CBF4FF4802543
:100B40004FF080752C492843886084E529498068E6
:100B50008B4200F0D78018318B4200F0FA802C4D88
:100B6000AB420CBF4FF400254FF0007522492843DB
:100B700088607FE4244902F556729342896800F048
:100B8000C5801832934200F0F680204883420CBFA3
:100B90004FF480104FF080601B4A01439160B4E530
:100BA000144980688B4200F0A58018318B4200F018
:100BB000CE80174DAB420CBF4FF480354FF480050B
:100BC0000D4928438860C2E4082550E4114DBBE478
:100BD000114D3DE51020B1E5102093E5402599E445
:100BE0004FF400751FE44FF4807500E54FF4006288
:100BF000FCE500BF1060024000600240B8600240A7
:100C000058600240A060024000640240406402401C
:100C10004060024001008000040080004FF400604A
:100C20004AE613681A037FF50AAEE36B002B7FF4E4
:100C300004AE04E61A4694E54FF40070FFF7D2BB09
:100C40005D4DD4E45D4D65E40825FFF7ECBB202243
:100C5000CCE5202030E65A4B89689A425CD01833A4
:100C60009A4200F0858018339A4214BF4FF0006218
:100C70004FF40012534B0A439A60D4E5504B8968F5
:100C80009A4245D018339A4278D04F48824214BFD6
:100C90004FF000604FF400104A4B0143996064E646
:100CA000474A8968934241D01832934269D04648F6
:100CB00083420CBF4FF480104FF08060414A0143E3
:100CC000916022E53E4A896893422DD018329342C2
:100CD0005AD03D4883420CBF4FF480104FF08060E3
:100CE000384A014391602CE52020DDE6202297E57B
:100CF000324D8EE6314D63E710200FE72E4D52E660
:100D00000825BBE6082531E72B4D1BE7102043E7FC
:100D10002020C1E72022E0E62022ABE7202021E6C8
:100D2000102093E610205BE61020D9E71020C5E7DD
:100D30004FF40075FFF79BBB402505E44FF4807529
:100D400086E44FF40060AFE64FF4006268E54025AA
:100D500036E74FF4007509E74FF48075F2E64FF47B
:100D60008060CFE44FF48060E8E44FF48060D5E623
:100D70004FF400627EE74FF480600DE74FF40060AF
:100D80008AE74FF4806099E74FF48060A8E7402538
:100D90003FE64FF4807506E64FF400756EE64FF4BB
:100DA00000629AE64FF40060DCE54FF4806017E6DD
:100DB0004FF480604AE600BF04008000010080001C
:100DC0001060024000600240406002402DE9F047A0
:100DD0000F6800220123934003EA07059D4240F07B
:100DE000F2804C6824F01006022E19D10B6902F033
:100DF000070C4FEA8C0C03FA0CF8D30800EB8303C2
:100E00004FF00F0AD3F820900AFA0CFC29EA0C0CD8
:100E1000C3F820C0D3F820C048EA0C0CC3F820C0A7
:100E200053004FF0030CD0F800800CFA03FC6FEA7B
:100E30000C0C0CEA0808C0F80080D0F8009004F010
:100E4000030808FA03F8013E48EA0908012EC0F831
:100E5000008016D886680CEA06068660CE68D0F850
:100E600008809E4046EA08068660466826EA05062F
:100E700046604668C4F3001808FA02F848EA060615
:100E80004660C6680CEA0606C6608E68D0F80CC0DC
:100E900006FA03F343EA0C03C360E30040F19380D6
:100EA0004C4B5E6C46F480465E6422F0030606F10D
:100EB000804606F59C3602F0030CB3684FEA8C0CB2
:100EC0004FF00F0808FA0CF823EA0803B360424B0E
:100ED000D6F80880984226D003F58063984224D043
:100EE00003F58063984222D003F58063984220D0B6
:100EF00003F5806398421ED003F5806398421CD0AE
:100F000003F5806398421AD003F58063984218D0A5
:100F100003F58063984216D003F58063984214BFAE
:100F20000A23092310E000230EE001230CE0022332
:100F30000AE0032308E0042306E0052304E0062377
:100F400002E0072300E0082303FA0CF343EA080356
:100F5000B360224BD3F800C0EE4306EA0C0CC3F892
:100F600000C0D3F804C014F4803F06EA0C0CC3F8A8
:100F700004C005D0D3F800C045EA0C0CC3F800C08B
:100F800014F4003F05D0D3F804C045EA0C0CC3F8B4
:100F900004C0D3F80880DFF844C006EA0808C3F8A4
:100FA0000880D3F80C8006EA0806DE60E60204D565
:100FB000DCF808302B43CCF80830A30203D5074BEC
:100FC000DC682543DD600132102A7FF403AFBDE801
:100FD000F08700BF0038024000000240003C0140A2
:100FE0000AB10183704741837047436959404161A9
:100FF0007047000090F87833012B10B5044601D1FA
:10100000022010BD012380F87833006801F04EFE05
:10101000206801F013FB002084F8780310BD00BFA6
:101020002DE9F04F076887B00446384601F07CFE92
:1010300010B107B0BDE8F08F206801F043FE002832
:10104000F7D0206801F03EFE10F0020F20681EBFAE
:10105000436943F00203436101F034FE010300F1F0
:1010600034814FF00008206801F02CFE10F4802F2E
:10107000206840F0CE8001F025FE0028C0F21782E3
:10108000206801F01FFE01054ED4206801F01AFE11
:10109000C3047FD4206801F015FE10F4005F2068BF
:1010A0005AD101F00FFE10F0100F206817D083699D
:1010B00023F0100383613D6A05F00F03C3EBC30304
:1010C000C5F3434204EB8303022A03F5EA7600F0FA
:1010D000DA81062A33D0836943F01003836101F07B
:1010E000F1FD070700F14181206801F0EBFDC60228
:1010F00000F12581206801F0E5FD850200F12A81DB
:10110000206801F0DFFD400000F1D680206801F08A
:10111000D9FD41078DD523685D686A0700F1988184
:101120005A6815435D6084E7D7F80838DA0700F19C
:1011300094812068436943F400634361A6E738461D
:1011400004F55F71082201F04FFDB3692068C5F313
:101150000A152B44B361BEE701F0EAFD2068C368BD
:1011600023F47053C36001F083FA2368002840F031
:101170008181DA68E0604FF4007142F410526161DD
:10118000DA60204602F0CBFC2068436943F4005348
:10119000436186E707F500667368206823F0010362
:1011A0007360002101F052FA65685DB107F51063C4
:1011B0000022FF210132AA429960C3F8081203F10C
:1011C0002003F7D14FF0FF33B361F269A36A42F015
:1011D0000112F261002B00F04481D6F8843043F014
:1011E0000B03C6F88430736C43F00B037364D7F8B9
:1011F00000382068217C23F4FE63C7F8003804F52A
:101200005F7201F0B1FD2068436943F4805343618C
:1012100041E701F063FD8346002800F087814FF02D
:10122000000820680397254607F5106AC14609E0C3
:101230005FEA5B0B09F1010905F11C050AF1200ABF
:1012400000F09C801BF0010FF2D05FFA89F739465D
:1012500001F056FDC307064616D5012303FA09F12E
:10126000039B03F50062C943236951630122934242
:10127000CAF8082000F038813946204602F043FCC5
:101280002169012900F02281300744BF0823CAF8F0
:101290000830F10644BF1023CAF80830720644BF74
:1012A0004023CAF80830B30744BF0222CAF8082016
:1012B000300666D42068BBE7204602F050FC206868
:1012C000436943F08043436121E7206801F0FEFC5D
:1012D000054600283FF4C5AE07F53066A3464FF03B
:1012E000000808E06D0808F1010806F120060BF17E
:1012F0001C0B3FF4B8AEEA07F4D55FFA88FA514602
:10130000206801F0F3FC10F0010F81460DD0236935
:1013100001229342B26000F0FB805146204602F069
:10132000E9FB2169012900F0E48019F0080F40F081
:10133000898019F0100F1CBF1022B260D2E720463E
:101340005FFA88F102F007FC2068436943F48013D8
:101350004361D0E620465FFA88F102F0F8FB20688E
:10136000436943F400134361CBE6204602F0D3FB0C
:101370002068436943F008034361B6E6C846039F0B
:1013800079E62368696CD5F848C0AA6B049303F525
:10139000106808EB4918CCEB0103934234BF1E469A
:1013A0001646D8F818E0F01C48BFB01D1FFA8EFE94
:1013B000BEEBA00F40F2BD80614540F2BA8000292B
:1013C00000F0B780E96BCDF814901646A946254683
:1013D0004446DDF8108006E0D9F844209A421ED930
:1013E000D9F83860D31AB34238BF1E462B7C00931D
:1013F0003A46B3B2404601F0E3FBD9F83C10D9F8C5
:10140000483031443344C9F83C10C9F84830A06929
:10141000F21C80B248BFB21DB0EBA20FDCD82C4644
:101420004D462068DDF81490002E3FF701AF049A76
:1014300002F50061012202FA09F34A6B22EA030372
:101440004B63F5E6204602F04EFB0823B36070E7DD
:10145000204602F088FB236862E6204602F06FFB1C
:1014600067E6736943F00B037361336943F00B0361
:101470003361BCE6DA68032042F4A0524021E06008
:101480006161DA607DE647F6F0732B40002B3FF494
:1014900022AE1D092A463846F16801F0A5FBF26824
:1014A000B36920682A442B44F260B36113E6D7F88D
:1014B000042822F001022046C7F8042802F043FB6A
:1014C0002068436943F000434361DAE5B9F1000F56
:1014D0007FF4DAAE636C002B7FF4D6AE206804F59F
:1014E0005F7201F041FCCFE6EA6BAB6B1344EB6338
:1014F000C2E6B8F1000F7FF418AFD4F8E831002B42
:101500007FF413AF206804F55F7201F02DFC0CE747
:101510003169DBF8DC31DBF8E021C1F31201591A43
:101520001344CBF8EC11CBF8E031F6E680462068A6
:10153000A1E5049878E700BF90F87833012B10B547
:10154000044601D1022010BD012380F878330068E1
:1015500001F09CFB002084F8780310BD70B50546AF
:10156000080620D4C1EBC10005EB800000F5EA7449
:10157000002680F8D411A260E3706670022B04BFCD
:101580000023237195F87833012B01D1022070BD1F
:101590000123214685F87833286801F087F8002078
:1015A00085F8780370BD01F07F01C1EBC1008000B8
:1015B00030302C1801262954A260E370E180667057
:1015C000DCE700BFCAB2130610B5044619D4C1EB5C
:1015D000C10300EB830303F5EA73D2095A70197053
:1015E00094F87823012A01D1022010BD0122194666
:1015F00084F87823206801F0A1F8002084F87803AB
:1016000010BD01F07F01C1EBC10300EB8303303358
:10161000E3E700BF70B501F07F050446C5EBC500E8
:1016200004EB800000F5EA7100264E70CA604B6141
:101630008E6180F8D4512369012B08BF0A6194F8A8
:101640007823012A11D0012284F878232068DAB2A5
:101650002DB101F0B5F8002084F8780370BD01F0D9
:10166000F1F9002084F8780370BD022070BD00BF3E
:1016700001F07F01C1EBC10100EB8100B0F8EC018A
:10168000704700BFF8B501F07F05C5EBC5018900C3
:10169000044601F130002118012600274E70CA606F
:1016A0004B618F6125542369B34208BF0A6194F8E6
:1016B0007823012A11D0012284F878232068DAB235
:1016C0002DB101F07DF8002084F87803F8BD01F019
:1016D000B9F9002084F87803F8BD0220F8BD00BFF6
:1016E000CAB238B5130604461CD4C1EBC10300EBE3
:1016F000830303F5EA730D46D20901215A701D7068
:10170000997094F878238A4201D1022038BD84F878
:1017100078132068194601F07BFA5DB1002084F847
:10172000780338BD01F07F05C5EBC50300EB8303EB
:101730003033E1E72068217C04F55F7201F014FB8F
:10174000ECE700BFCAB238B5130604461BD4C1EBA0
:10175000C10300EB830303F5EA73D20900255A7035
:1017600019709D7094F87823012A01D1022038BDA8
:101770000122194684F87823206801F069FA84F878
:101780007853284638BD01F07F01C1EBC10300EB5F
:1017900083033033E1E700BFF8B503680446D80798
:1017A00003D4236899074AD48CE0AA4B9A6802F0C4
:1017B0000C02042A07D09A6802F00C02082A0BD106
:1017C0005B685A0208D5A34B1B689B03E9D5636885
:1017D000012BE6D00120F8BD9F4E00233370FEF7A9
:1017E0006BFD00F59C5508359A4B1B689F0305D58A
:1017F000FEF762FDA842F7D30320F8BD23793370CA
:101800006368012B0DD1FEF757FD00F59C55083597
:10181000904B1B689803C4D4FEF74EFDA842F7D343
:10182000EAE7FEF749FD00F59C550835894B1B6832
:101830009903B6D5FEF740FDA842F7D3DCE7854B08
:101840009A6812F00C0F07D09A6802F00C02082A6E
:101850000AD15B685A0207D47E4B1B689B0731D5BF
:10186000E368012BB6D12DE0E2687C4BE2B10122A6
:101870001A60FEF721FD00F16405764B1A689707A0
:1018800004D4FEF719FDA842F7D3B5E71968F8208C
:1018900090FAA0F0B0FA80F02269C0B2824021F044
:1018A000F8010A431A600DE01A60FEF705FD00F129
:1018B0006405684B1B689E0704D5FEF7FDFCA84233
:1018C000F7D399E723681D0703D4236858074DD53C
:1018D0001FE06269624B72B101221A60FEF7ECFCF4
:1018E00000F164055B4B5B6F9907EED4FEF7E4FCF7
:1018F000A842F7D380E71A60FEF7DEFC00F164052A
:10190000544B5B6F9A07E0D5FEF7D6FCA842F7D39D
:1019100072E7504B1A6C42F080521A64A3F5E4331C
:101920001A6842F480721A60FEF7C6FC00F1640582
:101930004C4B1B68DB051CD54B4E00233370FEF768
:10194000BBFC00F59C550835424B1B6F9F0715D417
:10195000237A3370A368012B1AD1FEF7ADFC00F592
:101960009C5508353B4B1B6F9E070CD5A369EBB903
:1019700063E0FEF7A1FCA842DAD33DE7FEF79CFC4A
:10198000A842E1D338E7FEF797FCA842EAD333E751
:10199000FEF792FC00F59C5508352E4B1B6F9807FF
:1019A000E4D5FEF789FCA842F7D325E7294A9268D7
:1019B00002F00C02082A3FF40DAF2C4D022B4FF021
:1019C00000032B6054D1FEF777FC00F16406214B35
:1019D0001A68910133D447F6C07292FAA2F2B2FAB1
:1019E00082F24FF4403797FAA7F7B7FA87F74FF02C
:1019F000706696FAA6F6B6FA86F6206AE1690143A1
:101A0000D0B2626A41F0005182401143A26AE46A96
:101A10005208013AFFB202FA07F741EA0702F1B2AF
:101A20008C4022435A6001232B60FEF745FC00F1F5
:101A30006404084B1B689A0106D50020F8BDFEF728
:101A40003BFCB042C3D3D7E6FEF736FCA042F0D34E
:101A5000D2E600BF00380240023802400000474290
:101A6000800E4742007000407038024060004742DC
:101A7000FEF722FC00F16404044B1B689B01DCD5DB
:101A8000FEF71AFCA042F7D3B6E600BF00380240CA
:101A9000244B9A6802F00C02042A40D0082A01D094
:101AA000214870475968586801F03F014FF480029F
:101AB00092FAA2F2B2FA82F200F48000D2B230FAC4
:101AC00002F247F6C07258680BD092FAA2F3B3FA4A
:101AD00083F3DBB20240DA40144BB3FBF1F3534320
:101AE0000CE092FAA2F2B2FA82F247F6C073034017
:101AF0000D48D2B2D340B0FBF1F14B43094A5068D4
:101B00004FF4403292FAA2F2B2FA82F2D2B200F468
:101B10004030D04001304000B3FBF0F07047034844
:101B2000704700BF003802400024F400007A030A26
:101B300008B5FFF7ADFF094B9A68F02393FAA3F3BA
:101B4000B3FA83F302F0F002DBB222FA03F3044AA1
:101B5000D35CD840034B186008BD00BF003802407A
:101B6000A4440008180000206C4B1A6802F00F0211
:101B7000914270B504460D4659D9CAB21A701B6815
:101B800003F00F038B4201D0012070BD0368DD0715
:101B90000BD42368980740F19780614AA168906848
:101BA00020F0F000014391608EE042685C4B012A16
:101BB000196802D111F4003F06E0022A02D111F0A7
:101BC000007F01E011F0020FDED0996821F00301DF
:101BD0000A439A60FEF770FB636800F59C55012B81
:101BE00005F108050BD14E4B9B6803F00C03042B49
:101BF000CFD0FEF761FBA842F5D3032070BD022BC6
:101C000009D0474B9B6813F00C0F0BD1C1E7FEF7CF
:101C100053FBA842F1D2424B9B6803F00C03082B04
:101C2000F5D1B6E7FEF748FBA842EAD3E5E703683B
:101C3000D90708D4394BEAB21A701B6803F00F03B6
:101C4000AB42A1D1A5E74268354B012A196802D100
:101C500011F4003F06E0022A02D111F0007F01E0FA
:101C600011F0020F90D0996821F003010A439A60A5
:101C7000FEF722FB636800F59C56012B06F108066F
:101C80000AD1274B9B6803F00C03042BD2D0FEF73C
:101C900013FBB042F5D3B0E7022B09D0204B9B6871
:101CA00013F00C0F0BD1C5E7FEF706FBB042A4D230
:101CB0001B4B9B6803F00C03082BF5D1BAE7FEF72A
:101CC000FBFAB042EAD398E75A0706D5144AE1680E
:101CD000906820F4E050014391601B0707D5104B3A
:101CE00021699A6822F4604242EAC1029A60FFF7D1
:101CF0001FFF4FF47A73B0FBF3F00138B0F1807F2F
:101D00000AD2084B084A5860F02182F823100020BC
:101D1000072298601A6070BD002070BD003C024030
:101D20000038024010E000E000ED00E008B5FFF7E9
:101D3000FFFE084B9A684FF4E05393FAA3F3B3FA0B
:101D400083F302F4E052DBB222FA03F3024AD35CDB
:101D5000D84008BD00380240A444000808B5FFF789
:101D6000E7FE084B9A684FF4604393FAA3F3B3FA83
:101D700083F302F46042DBB222FA03F3024AD35C3B
:101D8000D84008BD00380240A4440008704700BF96
:101D90000368DA6842F00102DA601A6842F0010270
:101DA0001A600020704700BF704700BF704700BF37
:101DB000704700BF704700BF03681A69910710B5EC
:101DC000044602D5DA68920765D41A69500702D52D
:101DD000DA6851074BD41A69120702D5DA6810077E
:101DE00032D41A69D20602D5DA68D00618D41A6934
:101DF000D10702D5DA68D20771D41A69100602D564
:101E0000DA68110674D41A69520602D5DA685006E7
:101E10005CD41A69910602D5DA6892064DD410BDD9
:101E20001A6922F010021A619B69082213F4407F9C
:101E30002276204668D1FFF7B7FF2046FFF7B8FFAC
:101E4000002223682276D2E71A6922F008021A617A
:101E50009B6904229907227620465BD1FFF7A4FFF5
:101E60002046FFF7A5FF002223682276B9E71A690A
:101E700022F004021A619B69022213F4407F227649
:101E8000204644D1FFF790FF2046FFF791FF002244
:101E9000236822769FE71A6922F002021A619B6981
:101EA00001229B0702762CD1FFF77EFF2046FFF729
:101EB0007FFF00222368227687E71A6922F020023A
:101EC00020461A61BDE8104000F0A4B81A6922F05B
:101ED00040021A612046FFF76DFF236899E71A69EF
:101EE00022F001021A61204601F0BCFD236884E75C
:101EF0001A6922F080021A61204600F08DF82368EA
:101F000081E7FFF753FFD4E7FFF750FF98E7FFF7AC
:101F10004DFFBCE7FFF74AFFA5E700BF2F4A036864
:101F2000904230B447D0B0F1804F30D0A2F57C421F
:101F300090422CD002F58062904228D002F5806257
:101F4000904224D002F57842904220D002F570529F
:101F5000904220D002F5806290421CD002F580624F
:101F6000904218D0A2F59832904214D002F58062C7
:101F7000904210D002F5806290420CD08C680A68C2
:101F800003600123C462826230BC436170474A68C7
:101F900023F070031343CA688D680C6823F4407300
:101FA0001A430F4B02609842C562846210D001232D
:101FB000436130BC70474C68CA6823F070031C430F
:101FC00024F44074224302608B68C3620B6883620E
:101FD0000B6903630123436130BC7047000001407B
:101FE0000004014010B5044690B190F8393063B157
:101FF0002146022351F8040B84F83930FFF78EFF95
:10200000012384F83930002010BDFFF7BFFEEFE751
:10201000012010BD704700BF704700BF2DE9F0419F
:102020000568C1682B69C269D0F810E08768466905
:1020300023F440531943044680692961EB684EEA52
:10204000070123F41643314323F00C0311430B43E0
:10205000EB606B6923F440730343B2F5004F6B618F
:10206000594B3CD09D4200F08C8003F580639D422B
:1020700000F08780FFF75AFE6368544E00EB800043
:102080009B0000EB8000B0FBF3F7FFF74FFE6368A7
:1020900000EB80009B0000EB8000B0FBF3F8FFF743
:1020A00045FE636800EB800000EB80009B00B0FB06
:1020B000F3F3A6FB0727A6FB03237F095B09642034
:1020C0003F0100FB13884FEA081808F13208A6FB0D
:1020D0000836C6F343163743AF60BDE8F0819D4232
:1020E0002DD003F580639D4229D0FFF71FFE636862
:1020F000364E00EB80005B0000EB8000B0FBF3F796
:10210000FFF714FE636800EB80005B0000EB8000CB
:10211000B0FBF3F8FFF70AFEA6FB072763687F0909
:1021200000EB80003F0100EB80005B00B0FBF3F3AD
:10213000A6FB03235B09642202FB1388C3E7FFF7B6
:102140000DFE6368214E00EB80005B0000EB800019
:10215000B0FBF3F7FFF702FE636800EB80005B0063
:1021600000EB8000B0FBF3F8FFF7F8FDA6FB0727B4
:1021700063687F0900EB80003F0100EB80005B009B
:10218000D4E7FFF7EBFD6368104E00EB80009B0087
:1021900000EB8000B0FBF3F7FFF7E0FD636800EBB6
:1021A00080009B0000EB8000B0FBF3F8FFF7D6FD4A
:1021B000A6FB072763687F0900EB80003F0100EB67
:1021C00080009B00B2E700BF001001401F85EB516B
:1021D000F8B5154606460C46FEF76EF84719326804
:1021E00001E06B1C05D1136823409C42F9D100200B
:1021F000F8BDFEF761F88742F1D83368DA6822F05B
:102200008002DA60DA6822F02002DA60DA6822F40A
:102210008072DA605869012120F0010000225861C3
:10222000032086F8391086F83820F8BD704700BFC3
:1022300010B5044628B390F83930FBB12368022268
:1022400084F83920DA6822F40052DA602046FFF779
:10225000E5FE23681A6922F490421A615A6922F055
:102260002A025A61D868002240F400500121D86047
:1022700084F83A20104684F8391010BDFFF7D6FFD5
:10228000DCE7012010BD00BF704700BF10B5044659
:1022900060B1022380F83930FFF7F6FF002084F8A0
:1022A0003A0084F8380084F8390010BD012010BDD0
:1022B00090F83930DBB2012B03D0122B01D0022071
:1022C000704739B332B390F83830012BF7D0002380
:1022D00080F83A3090F839308285122B0CBF3223C7
:1022E000222380F839300368C285DA68816242F4BB
:1022F0008072012180F83810DA605A6942F00102D8
:102300005A61D968002241F0200180F83820104637
:10231000D960704701207047F8B5044690F839003D
:10232000C0B2012803D0222801D00220F8BD002924
:102330002DD062B394F83830012BF6D0002384F806
:102340003A3094F839302568124F134E2162222B0F
:102350004FF0010084F8380008BF3223206BA284BC
:1023600018BF122384F839300C4BE284C36307642E
:10237000134686642A1DFDF7DBFF2268516900239E
:1023800041F080015161184684F83830F8BD0120D1
:10239000F8BD00BFA5230008B1230008D52300081D
:1023A000704700BF08B5806BFFF7FAFF08BD00BF9C
:1023B000806B08B5012380F8393090F83A2000236B
:1023C00042F0100280F83A20C385C38401F08AFBF2
:1023D00008BD00BF10B5846B23685A69002122F044
:1023E0008002E18420465A61402145F2F052FFF715
:1023F000EFFE58B994F83930322B0CBF2223012359
:1024000084F83930204601F067FB10BD032384F8BF
:102410003930204601F066FB10BD00BF03681A6822
:10242000D96810B50446D00701D5CA0548D41A6842
:102430005969900701D5CA0737D41A6859695007F6
:1024400001D5CA0726D41A685969100701D5CA07E9
:1024500015D41A68D968900601D5890646D41A6839
:10246000D968500601D54A0635D494F83A302BB1D4
:10247000012384F83930204601F034FB10BD1A687E
:1024800022F008021A6094F83A2042F0080284F818
:102490003A20DEE71A6822F004021A6094F83A2023
:1024A00042F0020284F83A20CDE71A6822F00202D4
:1024B0001A6094F83A2042F0040284F83A20BCE70B
:1024C0001A6822F001021A6094F83A2042F00102E0
:1024D00084F83A20ABE794F8392002F0DF02122AA0
:1024E0000FD01A6822F040021A60BEE794F8392033
:1024F00002F0EF02222A35D01A6822F020021A6078
:10250000ADE794F83820012AEBD0A2680121B2F59A
:10251000805F84F83810226A75D0511C21621278CD
:102520005A60E28C013A92B2E284002A55D1DA680C
:1025300022F04002DA6094F83920322A6CD0DA684E
:1025400022F48072DA605969012221F00101596197
:1025500084F83920002384F83830204601F0BCFA92
:102560002368BEE794F83820012AC5D0A26801216B
:10257000B2F5805F84F8381022693BD0002A30D150
:10258000A26A5B68511CA16213702368E28D013A54
:1025900092B2E2851AB1002284F83820ACE71A68BA
:1025A0009206FCD4DA6822F02002DA6094F839202E
:1025B000322A38D0DA6822F48072DA60596901224E
:1025C00021F00101596184F83920002384F8383062
:1025D000204601F06FFA23688EE7002284F8382045
:1025E0007FE75A68A36A02F07F02591CA1621A7041
:1025F0002368CBE7A16AD2B95A68C2F3080221F86E
:10260000022BA162C2E710882169C0F3080058605C
:1026100031B90232226284E7222384F8393099E703
:10262000013222627DE7122384F83930CDE75A68FF
:10263000D2B221F8012BA162A8E700BF0346002017
:102640009A6842F001029A60704700BF490141F068
:1026500020010161054A01E0013A05D0036913F048
:102660002003F9D11846704703207047400D03003E
:10267000D0F8083813F0060300F5006013D0836823
:1026800003F00603022B0CD0836803F00603062B2D
:1026900007D0836803F00603042B0CBF0220002040
:1026A0007047032070471846704700BF70B44B78DE
:1026B000012B21D00A78D0F81C484FF4803505FA58
:1026C00002F22243C0F81C280A784FF4306303EB6F
:1026D00042131A5812040CD41A588C68C97842F064
:1026E000805242F40042C4F30A04224342EA814287
:1026F0001A50002070BC70470C78A340D0F81C48DA
:102700009BB22343C0F81C380A784FF4106303EBE4
:1027100042131C582404ECD41E588D68CC7846F023
:102720008051C5F30A0541F40041294341EA84413F
:1027300041EA82521A5070BC002070474B78012B3E
:1027400030B41DD00C78D0F83C58012202FA04F4C1
:1027500025EA0444C0F83C480D78D0F81C48AA404B
:1027600024EA0242C0F81C280A784FF4306303EBD5
:10277000421330BC1A5822F400421A50002070470D
:102780000C78D0F83C5803FA04F4A4B225EA040407
:10279000C0F83C480D78D0F81C48AB409BB224EA06
:1027A0000303C0F81C380A784FF4106303EB42139C
:1027B00030BC1A5822F400421A500020704700BF63
:1027C0002DE9F0034B78012B77D00E784F69202448
:1027D0004FF4306314FB063606443569ED0CED0406
:1027E00035610E7814FB06360644356925F0FF5531
:1027F00025F4C015356197B38D6891F800C0904EEF
:102800002F4414FB0C3C013FB7FBF5F78444BFB2E7
:10281000DCF810804FEAC74909EA060646EA0806CE
:10282000CCF810600E7814FB0633034405FB07F563
:102830001C69C5F312052543012A1D6123D0CB78FD
:10284000012B29D00A784FF4306303EB4213C258AE
:1028500042F00442C2500020BDE8F00370470D78FA
:102860008E6814FB05350544C6F312062F693E43F6
:102870002E610D7814FB05330344012A1C6944F4CE
:1028800000241C61DBD10A78CB6800EB4212C2F84D
:10289000143BCB78012BD5D1D0F808380A7813F443
:1028A000807F4FF4306303EB4213C2580CBF42F0F9
:1028B000005242F08052C250C4E74C69002C71D0E3
:1028C00091F80080D1F808C05D4E20254FF41063C8
:1028D00015FB0838804404EB0C09D8F81070FF0C85
:1028E000FF04C8F8107091F8008015FB0838804488
:1028F00009F1FF39D8F8107027F0FF5727F4C017F7
:10290000C8F810700F7815FB07370744B9FBFCFCBB
:10291000D7F810804FEACC4C0CEA060646EA0806C7
:102920003E610E7815FB06360644C4F3120C376977
:102930004CEA07073761CE78012E70D0012A5DD0AE
:10294000CB78012B4CD05CB10D78D0F834680127DE
:1029500007FA05F53543C0F83458CB78012B3FD042
:102960000D784FF4106303EB4513C55845F004454B
:10297000C550CB78012B7FF46EAFCB680978002A65
:102980007FF469AFA4B20334A4103FF464AF00EB4A
:10299000013000F58050013253F8041B016094426D
:1029A000F9D158E70F784FF41063202515FB07374E
:1029B00007443E6926F0FF5626F4C0163E610E78A5
:1029C00015FB06360644376947F4002737610E7851
:1029D00015FB063505442B69DB0CDB042B61ADE7E9
:1029E000D0F80838DB0510D40D784FF4106303EBF2
:1029F0004513C55845F00055C550B1E70D780B6932
:102A000000EB4515C5F81439A7E70D784FF41063AE
:102A100003EB4513C55845F08055C550A0E70E7827
:102A200015FB06360644376927F0C04737610E7834
:102A300015FB063303441D6945F000551D617DE714
:102A40000000F81F4B78012BF0B43CD00E784F6992
:102A500020244FF4306514FB065606443369DB0C22
:102A6000DB0433610B788E6814FB03540444236940
:102A700023F0FF5323F4C013236117BB0D782024E8
:102A80004FF4306314FB05350544C6F312062F6975
:102A900047F400272F610D7814FB05350544012A02
:102AA0002F6946EA07062E615DD00A784FF430633D
:102AB00003EB4213F0BCC25842F00442C250002063
:102AC00070474E61DAE74B69002B53D091F800C094
:102AD0008C684FF41067202616FB0C7C8444A342BC
:102AE000DCF810504FEAD5454FEAC545CCF81050F8
:102AF0000D7816FB0576064498BF1C46356925F00F
:102B0000FF5525F4C01535610E7888BF4C614FF430
:102B10001065202313FB06560644C4F312043769DC
:102B200047F4002737610E7813FB065303441D69F1
:102B30002C431C61012A3BD04B6943B10A78D0F881
:102B40003448012505FA02F22243C0F834280A78F5
:102B50004FF4106303EB4213F0BCC25842F004423E
:102B6000C250002070470D78CA6814FB0533034437
:102B70005A619AE70E784FF41063202414FB06364E
:102B80000644356925F0FF5525F4C01535610D78EB
:102B900014FB053505442E6946F400262E610D7898
:102BA00014FB053404442369DB0CDB042361C1E717
:102BB0000A780B6900EB4212C2F81439C7E700BF6C
:102BC00030B49DF8084064B903339B1009D000F578
:102BD000805000EB0232013451F8045B1560A342CF
:102BE000F9D1002030BC7047033270B495100BD07F
:102BF00000F580560A4600230133346842F8044B3E
:102C00009D42F9D101EB8501084670BC704700BFB9
:102C10004B78012B0B7870B40CBF4FF410644FF459
:102C20003064202515FB03431A181E58002E07DBBD
:102C30001A5822F080421A500A7815FB02420244C8
:102C4000136843F400130020136070BC704700BF8A
:102C50004B78012B0B7830B40CBF4FF410624FF45B
:102C60003062202414FB03231D5825F400151D5049
:102C7000CB78023B012B06D80B7814FB03221358A8
:102C800043F080531350002030BC7047D0F8002828
:102C900022F4FE62C0F80028D0F80028090101F4EF
:102CA000FE631343C0F800380020704708B500F5F4
:102CB00000635A6822F0020203205A60FDF702FB0B
:102CC000002008BD4369806918407047D0F8183863
:102CD00000F50060C0691840000C7047D0F8182853
:102CE000D0F81C3802EA030080B2704700F5306368
:102CF00003EB411100F500608B6840691840704794
:102D0000D0F8102810B4D0F8344800EB411000F58A
:102D1000106324FA01F0C001C0B29B685DF8044B57
:102D200010431840704700BF406900F00100704731
:102D3000D0F8002922F4FF6222F0070200F50063B8
:102D4000C0F800299A6802F00602042A05D1D0F8DA
:102D5000002942F00302C0F800295A6842F4807248
:102D60005A600020704700BF10B40024C0F8104B18
:102D7000D0F8104B44F40024C0F8104BD0F8104B9E
:102D800044F01804C0F8104BD0F8104B012944F05F
:102D9000C044C0F8104B05D14FF08021C0F8142B6F
:102DA000C0F8001B00205DF8044B704708B500F028
:102DB0002BF8000008B50C4B1A680AB90B4A1A60C8
:102DC0001B680B4A033020F003001844904206D9D8
:102DD00000F084FF0C2303604FF0FF3008BD024A6F
:102DE0001060184608BD00BFC80900205C21002003
:102DF00000FC012001230360014B0B60704700BF02
:102E00000000002000F010B8BFF34F8F044A054BBC
:102E1000D16801F4E0610B43D360BFF34F8FFEE74D
:102E200000ED00E00400FA050C4B1A68002142F0A6
:102E300001021A6099601A6822F0847222F48032CA
:102E40001A60074A5A601A6822F480221A60D96010
:102E5000044B4FF000629A60704700BF0038024098
:102E60001030002400ED00E0174A184B916801F083
:102E70000C01042903D0082903D0154A18E0154A8B
:102E800016E05068516810F4800F506814BF114A62
:102E90000F4A01F03F01B2FBF1F20B494968C1F35F
:102EA0000141C0F38810013142434900B2FBF1F205
:102EB0001A60054A08499268C2F30312895C1A68CD
:102EC000CA401A60704700BF003802401800002056
:102ED0000024F400007A030A0800002008B580B13D
:102EE000D0F8143213B10023C0F8143209B1C0F87D
:102EF0001012012380F8FC31027000F039FE00202E
:102F000008BD022008BD19B1C0F814120020704796
:102F10000220704708B500F033FE002008BD08B558
:102F2000D0F814320BB9022008BD1B68984700285E
:102F3000F9D108BD08B5D0F814325B689847002075
:102F400008BD38B5044600F50275284600F0E9F8DA
:102F5000012394F80812C4F8F431B4F80E32C4F81E
:102F6000F83101F01F03012B0CD006D3022B0ED138
:102F70002046294600F018FA0EE02046294600F0C7
:102F8000EFF809E02046294600F0F6F904E0204673
:102F900001F0800100F00CFE002038BD38B5044679
:102FA00009BBD0F8F431032B26D1D0F80C51D0F85E
:102FB00010319D420AD9ED1A9D4238BF2B46114669
:102FC000C0F80C519AB200F08EFA15E0D0F8143225
:102FD0001B6923B190F8FC21032A00D198472046B1
:102FE00000F08AFA08E0D0F814329B6923B190F817
:102FF000FC21032A00D19847002038BD70B5044653
:10300000002935D1D0F8F431022B29D1C569036AE2
:103010009D4206D9EB1A1146C3619AB200F04AFAF2
:103020001EE08569B5FBF3F603FB16565EB99D42BB
:1030300009D3D0F8F8319D4205D2324600F03AFA71
:10304000C4F8F8610CE0D4F81432DB682BB194F8C2
:10305000FC21032A01D120469847204600F057FA68
:1030600094F80032012B0CD1002384F8003208E0E0
:10307000D0F814325B6923B190F8FC21032A00D107
:103080009847002070BD38B5002104460A46402507
:10309000402300F07CFD2B46C4F8105120468021CF
:1030A000002200F074FD012384F8FC31D4F81832BA
:1030B00025622BB1D4F8143221795B6820469847F9
:1030C000002038BD01740020704790F8FC3180F872
:1030D000FD31042380F8FC310020704790F8FD3169
:1030E00080F8FC310020704708B590F8FC21032AD5
:1030F00004D1D0F81432DB6903B19847002008BD31
:1031000000207047002070470020704708B501225A
:1031100080F8FC21D0F814220179526890470020F1
:1031200008BD0B7803704B784370CA788B7803EB3B
:10313000022343804A790B7903EB02238380CA7907
:103140008B7903EB0223C380704710B580210446BE
:1031500000F02EFD20460021BDE8104000F028BD03
:1031600073B54B7804460D46092B00F2FC80DFE86E
:1031700013F0CE00E500FA00E100FA0077000A0043
:10318000FA00BD0093006B881A0A013A062A00F281
:10319000EA80DFE812F007000B001800E800E80002
:1031A0003D004900D0F810321B682CE0027CD0F8BA
:1031B00014320AB99B6A00E0DB6A0DF106009847F9
:1031C000022301463CE0DBB2052B00F2CC80DFE8B5
:1031D00003F003070B0F1317D0F810325B6812E0EF
:1031E000D0F810329B680EE0D0F81032DB680AE0AD
:1031F000D0F810321B6906E0D0F810325B6902E0AB
:10320000D0F810329B69207C0DF10601984709E047
:10321000037C002B40F0A780D0F814320DF106009B
:103220005B6B984701460CE0037C002B40F09B80D1
:10323000D0F814320DF106001B6B984707230146A6
:103240004B70BDF80630002B00F09180EA88002A10
:1032500000F08D809A4228BF1A46ADF8062054E04F
:10326000AB88002B7FD1EB88002B7CD190F8FC3110
:10327000AE78032B06F07F0675D080F8FE613146EC
:1032800000F0B7FC204600F037F90EB1022300E051
:10329000012384F8FC316AE0A978364E01293170A7
:1032A00061D890F8FC31022B02D0032B08D05AE0F1
:1032B000002954D001210323416080F8FC310FE044
:1032C00031B9022380F8FC314160FFF733FE46E05C
:1032D0004168012943D0C9B2FFF72CFE3178616003
:1032E0002046FFF71CFE022839D13CE0EA88012A7B
:1032F00039D190F8FC31022B03D0032B33D1011DBF
:1033000015E00146002341F8083F20460FE090F801
:10331000FC31023B012B26D80123C360D0F80432D4
:103320000BB10323C360204604F10C01022200F01C
:10333000B3F81CE06B88012B19D108E090F8FC3140
:10334000023B012B0FD86B88012B10D10023C4F84E
:103350000432D4F8143220469B6829469847204608
:1033600000F0CAF803E020462946FFF7EEFE0020F1
:1033700002B070BDCD09002038B590F8FC31032BA8
:1033800004460D460CD10B79012B09D8D0F8143224
:103390009B689847EB882BB9204600F0ADF801E018
:1033A000FFF7D3FE002038BD70B54E788A88012E15
:1033B00004460D46D3B210D027D3032E4CD190F83B
:1033C000FC21022A28D0032A44D14A889AB95E06F1
:1033D00011D0194600F0ECFB0DE090F8FC21022A18
:1033E0001AD0032A36D14A88002A35D1590608D086
:1033F000194600F0E4FBD4F8143220469B682946B5
:103400009847204600F078F826E090F8FC51022D0D
:1034100002D0032D06D01DE05A061DD0194600F03B
:10342000C7FB19E003F07F0512F0800F00EB0515D4
:10343000194614BF143505F5827500F0C7FB10B1AD
:1034400001232B6000E0286020462946022200F07C
:1034500023F801E0FFF779FE002070BD30B5D0B150
:103460000023DCB20133C51815F8015C002DF8D13A
:10347000631C5B0013800B7003234B700138022325
:1034800010F8012F3AB15C1CE4B2CA540233002296
:10349000DBB20A55F4E730BD38B513460D460222BB
:1034A000C0F8F4218361C36100212A4600F0A8FB23
:1034B000002038BD10B50C4613460021224600F00E
:1034C0009FFB002010BD38B513460D460322C0F8FF
:1034D000F421C0F80831C0F80C3100212A4600F070
:1034E00096FB002038BD10B50C461346002122463D
:1034F00000F08DFB002010BD08B500210423C0F8AA
:10350000F4310A460B4600F07BFB002008BD08B5ED
:1035100000210523C0F8F4310A460B4600F077FB82
:10352000002008BDD0F818321BB10020C3F81402E7
:10353000704702207047D0F81C3210B5D0F81842FE
:103540005BB194F80002FF2807D09B6894F8012231
:1035500021469847FF2384F80032002010BD000068
:1035600043230380004870471C000020432303804E
:1035700000487047E800002043230380004870475C
:10358000A40000200A230380004870479800002010
:1035900038B50546D0F8184200F040FBD5F818328F
:1035A000C4F80C024BB1D5F81C32D4F80402DB6825
:1035B00004F503719847002038BD022038BDF8B5E6
:1035C0000B78D0F8185203F06002202A06460C4609
:1035D0001AD1CA88C2B113F0800F4B780BD0D0F843
:1035E0001C1218468F682946B84730462946E2889B
:1035F000FFF752FF08E085F80032CB8885F80132EA
:103600002946E288FFF75FFF0020F8BD10B5812151
:10361000044600F0C6FA0121204600F0C2FA204616
:10362000822100F0BEFAD4F8183253B1D4F81C321B
:103630005B689847D4F8180200F05EFB0023C4F8DA
:103640001832002010BDF8B5037C04468121022207
:103650004BB94FF4007300F09AFA20460121022280
:103660004FF4007306E0402300F091FA2046012158
:103670000222402300F08BFA8221032208232046F5
:1036800000F085FA4FF4077000F02EFB0546C4F8F1
:103690001802C8B1D4F81C321B689847277CD5F8AB
:1036A00004220026C5F814622046C5F818620121DC
:1036B0002FB94FF4007300F0AAFA3846F8BD402342
:1036C00000F0A5FA3046F8BD0120F8BD19B1C0F8E8
:1036D0001C120020704702207047D0F818320020DA
:1036E000C3F80812C3F810227047D0F8183200202F
:1036F000C3F80412704738B5D0F8184274B1D4F842
:1037000014526DB9B4F81032D4F80822812100F0B7
:1037100077FA0123C4F81432284638BD022038BD98
:10372000012038BDD0F8183210B563B1047CD3F84D
:103730000422012114B94FF4007300E0402300F08B
:1037400066FA002010BD022010BD000070B5134BBA
:1037500086B0044608B1012804D11A6B42F0080271
:103760001A6303E01A6B42F008021A630C4B0D4E09
:1037700033F8145056F82400019501230293039363
:1037800001A902230493FDF721FB56F824002946E2
:103790000022FDF725FC06B070BD00BF00380240D6
:1037A000B44400082C010020044A034652F82000CB
:1037B000034A32F81310FDF718BC00BF2C0100209B
:1037C000B4440008174A184B116C70B541F0805191
:1037D00011641A6892B042F440421A600224012334
:1037E0004FF4A87107224FF48006082506A8069317
:1037F00007930D960E950F9111920C9410940F262D
:10380000FDF7CAFF00254FF4A0524FF4805301A8E2
:10381000052102940196039504920593FEF7A4F9FD
:1038200012B070BD003802400070004008B5FFF7CC
:10383000FBFAFFF7C7FFFFF717FBFCF713FD0120AB
:10384000FFF784FF0020FFF781FF0120FFF7ACFFA7
:103850000020FFF7A9FF01220C490D48FFF73EFBAE
:103860000C490B48FFF74FFB09480B49FFF72EFFA8
:103870000748FFF74FFB4FF47A70FCF723FD012058
:10388000FFF792FF0020FFF78FFFF4E768010020A9
:10389000100A002060000020440100207047FEE76D
:1038A000FEE7FEE7FEE7704770477047FCF7FCBC99
:1038B0000148FDF7B5BB00BFAC1C0020014B186BE5
:1038C000FCF76EBD340C00200148FEF7A7BD00BF19
:1038D000340C00200148FEF76FBA00BF701C0020B6
:1038E00008B503460A8803481946FEF715FD00206F
:1038F00008BD00BF340C002008B50248FEF7C6FC26
:10390000002008BD340C002070B5184A184C194E20
:1039100000254FF4E13384E82C0020460C2363613A
:10392000E5602561A561FEF783FC31460122204652
:10393000114CFEF7BDFC114B236041F28733E3606D
:103940002046532363602561A560FEF74BFB2046AC
:103950000B4CFEF71DFA31462A462046FFF7BDFE06
:1039600020460849FFF7C1FE284670BD00100140FF
:10397000340C0020700C0020701C0020000400405B
:10398000100A002070140020202838B512D02128F9
:103990005ED1304B1A680A701A68120A4A705A8847
:1039A0008A70DA78CA701A790A715A794A719B79E1
:1039B0008B714DE08B784A78264C274D1B0443EAE7
:1039C00002230A781343CA7843EA026323600B791F
:1039D00023714B79637128468B79A371FEF756FCEE
:1039E000237928462BB1022B02D14FF4005300E07B
:1039F00000236279C360012A07D04FF0000306D389
:103A0000022A04D14FF4806301E04FF4C063A2792D
:103A10000361072A4FF0000308D0082A06D1026983
:103A20000D4B0AB14FF480529A6000E08360236826
:103A30004360002383610C2343610748FEF7F8FBD2
:103A4000064B07491B68044819440122FEF730FC65
:103A5000002038BD3C010020340C0020D00900209B
:103A6000700C00200F4A104938B513680C68A34247
:103A7000154616D00D490E488CBFC3F50064C3EB44
:103A800004041944A2B2FFF728FE0948FFF733FEE9
:103A900038B92B681C44B4F5006F024B08BF0024F2
:103AA0001C6038BDD4090020D0090020700C002013
:103AB000100A0020064B07491A680132B2F5006F60
:103AC00008BF00221A601B6801221944FEF7F0BBF0
:103AD000D0090020700C00200148FFF723BE00BF72
:103AE000100A00207047014601F55F71D0F8AC0361
:103AF000FFF727BA1C2303FB0103D0F8AC03D3F86C
:103B0000E021FFF74BBA1C2303FB0103D0F8AC0301
:103B1000DA6BFFF773BAD0F8AC03FFF7E5BA10B56C
:103B2000C16804460031D0F8AC0318BF0121FFF78B
:103B3000C9FAD4F8AC03BDE81040FFF7A4BAD0F836
:103B4000AC03FFF7C2BAD0F8AC03FFF7C7BAD0F89E
:103B5000AC03FFF7D7BAD0F8AC03FFF7D1BAD0F86F
:103B6000AC03FFF7D1BAD0F8AC03FFF7CFBA00002F
:103B7000024B002083F82300704700BF00ED00E0F7
:103B800008B5D0F82002FDF735FA002008BD10B5C1
:103B90001446D0F820021A462346FDF7DFFC002029
:103BA00010BD08B5D0F82002FDF70CFD002008BDBF
:103BB00008B5D0F82002FDF793FD002008BD08B538
:103BC000D0F82002FDF7BEFD002008BD11F0800FE7
:103BD000D0F820324FF01C0206D001F07F0102FB2A
:103BE000013393F83200704702FB013191F8D6019E
:103BF000704708B5D0F82002FDF79EFC002008BDF4
:103C000008B5D0F82002FDF73DFD002008BD08B53D
:103C1000D0F82002FDF7FEFC002008BD08B5D0F862
:103C20002002FDF725FD08BD12230B8000487047D8
:103C30005401002004230B800048704784010020B9
:103C400010B5044C04480A462146FFF707FC2046FD
:103C500010BD00BF5C200020BC44000808B50A4627
:103C600008B9044800E004480449FFF7F7FB03489B
:103C700008BD00BFCF440008F04400085C200020CD
:103C800008B50A4608B9044800E004480449FFF7AB
:103C9000E5FB034808BD00BF114500081E450008AC
:103CA0005C20002010B5044C04480A462146FFF76A
:103CB000D5FB204610BD00BF5C2000202B4500082E
:103CC00010B5044C04480A462146FFF7C7FB2046BE
:103CD00010BD00BF5C20002036450008014B18686D
:103CE000704700BFB0050020024B0146186800F085
:103CF0000BB800BFB0050020024B0146186800F069
:103D000003BB00BFB00500202DE9F04F01F10B050A
:103D1000162D83B0064627D935F0070527D4A942CA
:103D200025D8304600F08CFAB5F5FC7F26D2C14F7D
:103D30004FEAD50C07EBCC03DC689C4200F0D28143
:103D40006368E268A16823F00303234430465D689A
:103D5000CA6045F0010591605D6000F073FA0834B7
:103D6000204603B0BDE8F08F1025A942D9D9002420
:103D70000C232046336003B0BDE8F08F5FEA552C7A
:103D800000F08A80BCF1040F00F260814FEA951CBC
:103D90000CF1380C4FEA4C01A64F07EB8101CC68BF
:103DA000A14205D10CE0002B7ADAE468A14207D0E9
:103DB000626822F00302531B0F2BF4DD0CF1FF3C71
:103DC0000CF1010C9B4B3C6903F1080E744500F0AB
:103DD0007E81616821F003014A1B0F2A00F3648190
:103DE000002AC3F814E0C3F810E06ADAB1F5007FE6
:103DF00080F03A81C90803EBC1004FEAA1085A6874
:103E00008168A1604FF0010909FA08F848EA020246
:103E1000E0605A608460CC604FEAAC0301209840B7
:103E200090425BD8024206D12CF0030C40000242C3
:103E30000CF1040CFAD007EBCC084446E146E368E9
:103E40009C4207D145E1002A80F25681DB689C4202
:103E500000F03F81596821F003014A1B0F2AF2DD6F
:103E60001C46D3F80CC054F8088F591945F00109C5
:103E700042F00105C3F804903046C8F80CC0CCF8F5
:103E8000088079613961C1F80CE0C1F808E04D6043
:103E90008A5000F0D7F963E77E214FF03F0C7BE7B3
:103EA0002244E3685068A16840F00105CB603046C9
:103EB0009960556000F0C6F90834204603B0BDE8AB
:103EC000F08F214430464B6843F001034B6000F013
:103ED000B9F90834204603B0BDE8F08FBC686368C8
:103EE00023F00309A94504D3C5EB09030F2B00F305
:103EF0009180514B514A19681368013305EB010A4F
:103F000004EB090B00F061810AF5805A0AF10F0AEF
:103F10002AF47F6A2AF00F0A30465146019200F0D7
:103F200093F9B0F1FF3F8046019A00F0008183458C
:103F300000F2FA80DFF810C1DCF80030C3455344CA
:103F4000CCF8003000F04A8112683C4901321BBFB6
:103F5000CBEB080B5B44C1F80080CCF8003018F0C4
:103F6000070300F01381C3F10802C3F580539044A6
:103F70000833C244CAF30B0ACAEB030A514630465F
:103F8000CDF804C000F060F9431CDDF804C000F077
:103F90003581C8EB0002524442F00102DCF80030E7
:103FA000C7F808805344BC42C8F80420CCF800305D
:103FB000DFF894A015D0B9F10F0F40F2EA806168E4
:103FC000A9F10C0222F0070201F0010EA118052050
:103FD00042EA0E0E0F2AC4F804E04860886000F23E
:103FE0001181174ABC6811688B4288BF1360154A5B
:103FF00011688B4288BF1360626822F00302954209
:10400000C5EB020301D80F2B04DC304600F01AF98F
:104010000024A5E6621943F0010345F0010565603F
:104020003046BA60536000F00DF90834204603B002
:10403000BDE8F08FB4050020E0090020C009002091
:10404000DC090020D8090020E4090020BCF1140F8D
:1040500061D9BCF1540F00F28F804FEA153C0CF18E
:104060006E0C4FEA4C0197E64B0A042B58D9142BDF
:1040700000F2AE8003F15B02500007EB8000DFF836
:10408000BC818368834200F08A805A6822F0030270
:10409000914202D29B689842F7D1D9687A68E16070
:1040A000A3608C60DC60B7E6611942F0010745F05F
:1040B00001056560304659611961C1F80CE0C1F82D
:1040C00008E04F608A50083400F0BCF848E65A68AF
:1040D000A2E609F1010919F0030F04F108047FF4C5
:1040E000AEAE2DE004F108036469A34208BF0CF1F1
:1040F000020C3FF467AE23E619441C464868DB68AF
:1041000054F8082F40F001054D603046D3609A60A6
:1041100000F098F824E60CF15B0C4FEA4C013BE60A
:104120008A0938325000A8E7BC423FF403AFBC68AC
:10413000626822F0030262E7D8F8008098457BD1DC
:104140001CF0030FA8F108030CF1FF3CF4D17B68CD
:1041500023EA00037B60400098423FF6BFAE002890
:104160003FF4BCAE0342CC467FF465AE4000034250
:104170000CF1040CFAD05EE6BCF5AA7F1AD84FEA1F
:10418000D53C0CF1770C4FEA4C0105E64FF4805317
:10419000EFE60123C8F80430444600222FE79110CF
:1041A0000120D8F8042000FA01F10A43C8F80420DD
:1041B000194674E740F254539C451BD84FEA954C7E
:1041C0000CF17C0C4FEA4C01E6E50AF1100AA3E67B
:1041D000542B1FD80A0B6E3250004EE7CBF30B0165
:1041E00000297FF4B1AE0AEB0901BA6841F0010180
:1041F0005160F6E6FC214FF07E0CCDE501224FF038
:10420000000ACBE604F10801304600F07DF8DAF848
:104210000030E6E6B3F5AA7F03D8CA0B7732500028
:104220002BE740F25452934203D88A0C7C32500060
:1042300023E7FC207E2220E77B688CE7B405002082
:10424000704700BF704700BF38B5074C00230546D4
:1042500008462360FEF7AEFD431C00D038BD23683E
:10426000002BFBD02B6038BD0C0A0020F8B5234D85
:104270000F460446FFF7E4FFAB685E6826F00306CE
:10428000F11B01F6EF7121F47F6121F00F01A1F51F
:104290008057B7F5805F07DB20460021FFF7D4FF8A
:1042A000AB683344984204D02046FFF7CBFF002090
:1042B000F8BD20467942FFF7C7FF01300DD0104B03
:1042C000AA681968F61B46F001062046C91B56600D
:1042D0001960FFF7B7FF0120F8BD20460021FFF766
:1042E000B3FFAB68C21A0F2ADEDD064D04492D6804
:1042F00042F00102401B5A600860D5E7B405002077
:10430000E4090020C00900202DE9F0410D460646D1
:10431000002955D0FFF794FF55F8041CDFF874C14D
:1043200021F00103A5F10804E218DCF80800576841
:10433000904227F0030769D011F00101576032D095
:104340000021D0194068C00706D43B44906800297A
:104350004ED0D268C260906043F001026260E350C8
:10436000E1B9B3F5007F2DD35A0A042A6AD8980917
:10437000383041000CEB810C4649DCF808206245DE
:1043800066D0516821F003018B4202D292689445B5
:10439000F7D1D368E360A2609C60D4603046BDE88A
:1043A000F041FFF74FBF55F8085C641B0CF108089B
:1043B000A06840452B4443D0E568C560A860C0E7CD
:1043C000BDE8F081DB080CEBC3020125DCF804003A
:1043D0009168A1609B1005FA03F31843E260CCF8E2
:1043E000040094603046CC60BDE8F041FFF72ABF7E
:1043F000294DA842ADD143F00102CCF81440CCF8CD
:104400001040E060A0606260E350C7E71F44CB0744
:1044100007D455F8083CE41A1F44A268E368D36047
:104420009A601E4B1B6847F001029F426260CCF805
:104430000840B3D31A4B30461968FFF717FFADE7B2
:1044400001217EE7142A0CD802F15B00410091E7BC
:104450004B688010012505FA00F003434B601346BA
:1044600098E7542A03D8180B6E30410082E7B2F562
:10447000AA7F03D8D80B773041007BE740F2545134
:104480008A4203D8980C7C30410073E7FC217E20DF
:1044900070E700BFB4050020BC050020BC09002067
:1044A000E0090020000000000102030401020304EF
:1044B00006070809001000200040008053544D6991
:1044C00063726F656C656374726F6E6963730053BA
:1044D000544D3332205669727475616C20436F6D90
:1044E000506F727420696E204853204D6F646500D0
:1044F00053544D3332205669727475616C20436F8A
:104500006D506F727420696E204653204D6F646544
:1045100000303030303030303030303141003030E9
:10452000303030303030303031420056435020434C
:104530006F6E6669670056435020496E74657266F7
:08454000616365004300000007
:10454800CC0900200000000000000000000000006E
:1045580001020304060708090024F40009024300C5
:10456800020100C032090400000102020100052412
:10457800001001052401000104240202052406009C
:10458800010705820308001009040100020A00005F
:1045980000070501024000000705810240000000F5
:1045A800473600080D360008BF3500080000000037
:1045B800373500082535000891350008000000004F
:1045C80000000000000000006D350008613500089B
:1045D80079350008853500080A0600020000004009
:1045E8000100000009074300020104C03209040069
:1045F8000001020201000524001001052401000148
:10460800042402020524060001070582030800FFAE
:1046180009040100020A0000000705010240000029
:10462800070581024000000009024300020100C0A2
:1046380032090400000102020100052400100105EE
:104648002401000104240202052406000107058252
:104658000308001009040100020A00000007050110
:10466800020002000705810200020000000C02405F
:10467800000C0240000C0240000C024000C2010085
:104688000000080009390008F938000889390008CD
:10469800E13800081201000200000040830440577E
:1046A8000002010203010000293C0008353C000813
:1046B800413C00085D3C0008813C0008A53C00081E
:1046C800C13C000804030904000000007404002031
:1046D800DC04002044050020000000000000000069
:1046E80000000000000000000000000000000000C2
:1046F8000000000000000000000000004445000821
:1047080000000000000000000000000000000000A1
:104718000000000000000000000000000000000091
:104728000000000000000000000000000000000081
:104738000000000000000000000000000000000071
:104748000000000000000000000000000000000061
:104758000000000000000000000000000000000051
:104768000000000000000000000000000000000041
:1047780001000000000000000E33CDAB34126DE6DE
:10478800ECDE05000B000000000000000000000047
:104798000000000000000000000000000000000011
:1047A8000000000000000000000000000000000001
:1047B80000000000000000000000000000000000F1
:1047C80000000000000000000000000000000000E1
:104AF800880100200000000000000000B40500202C
:104B0800B4050020BC050020BC050020C405002019
:104B1800C4050020CC050020CC050020D4050020C9
:104B2800D4050020DC050020DC050020E405002079
:104B3800E4050020EC050020EC050020F405002029
:104B4800F4050020FC050020FC05002004060020D8
:104B5800040600200C0600200C0600201406002085
:104B6800140600201C0600201C0600202406002035
:104B7800240600202C0600202C06002034060020E5
:104B8800340600203C0600203C0600204406002095
:104B9800440600204C0600204C0600205406002045
:104BA800540600205C0600205C06002064060020F5
:104BB800640600206C0600206C06002074060020A5
:104BC800740600207C0600207C0600208406002055
:104BD800840600208C0600208C0600209406002005
:104BE800940600209C0600209C060020A4060020B5
:104BF800A4060020AC060020AC060020B406002065
:104C0800B4060020BC060020BC060020C406002014
:104C1800C4060020CC060020CC060020D4060020C4
:104C2800D4060020DC060020DC060020E406002074
:104C3800E4060020EC060020EC060020F406002024
:104C4800F4060020FC060020FC06002004070020D3
:104C5800040700200C0700200C0700201407002080
:104C6800140700201C0700201C0700202407002030
:104C7800240700202C0700202C07002034070020E0
:104C8800340700203C0700203C0700204407002090
:104C9800440700204C0700204C0700205407002040
:104CA800540700205C0700205C07002064070020F0
:104CB800640700206C0700206C07002074070020A0
:104CC800740700207C0700207C0700208407002050
:104CD800840700208C0700208C0700209407002000
:104CE800940700209C0700209C070020A4070020B0
:104CF800A4070020AC070020AC070020B407002060
:104D0800B4070020BC070020BC070020C40700200F
:104D1800C4070020CC070020CC070020D4070020BF
:104D2800D4070020DC070020DC070020E40700206F
:104D3800E4070020EC070020EC070020F40700201F
:104D4800F4070020FC070020FC07002004080020CE
:104D5800040800200C0800200C080020140800207B
:104D6800140800201C0800201C080020240800202B
:104D7800240800202C0800202C08002034080020DB
:104D8800340800203C0800203C080020440800208B
:104D9800440800204C0800204C080020540800203B
:104DA800540800205C0800205C08002064080020EB
:104DB800640800206C0800206C080020740800209B
:104DC800740800207C0800207C080020840800204B
:104DD800840800208C0800208C08002094080020FB
:104DE800940800209C0800209C080020A4080020AB
:104DF800A4080020AC080020AC080020B40800205B
:104E0800B4080020BC080020BC080020C40800200A
:104E1800C4080020CC080020CC080020D4080020BA
:104E2800D4080020DC080020DC080020E40800206A
:104E3800E4080020EC080020EC080020F40800201A
:104E4800F4080020FC080020FC08002004090020C9
:104E5800040900200C0900200C0900201409002076
:104E6800140900201C0900201C0900202409002026
:104E7800240900202C0900202C09002034090020D6
:104E8800340900203C0900203C0900204409002086
:104E9800440900204C0900204C0900205409002036
:104EA800540900205C0900205C09002064090020E6
:104EB800640900206C0900206C0900207409002096
:104EC800740900207C0900207C0900208409002046
:104ED800840900208C0900208C09002094090020F6
:104EE800940900209C0900209C090020A4090020A6
:104EF800A4090020AC090020AC0900200000020031
:044F0800FFFFFFFFA9
:040000050800018965
:00000001FF
